:10000000984000203D510000894F00003951000008
:1000100039510000395100003951000039510000B8
:100020000000000000000000000000003951000046
:100030003951000000000000395100003951000022
:10004000FD450000D5460000F1470000D546000000
:10005000F1470000093E0000953D0000514C0000B2
:10006000514C0000514C000051330000FD320000A3
:10007000B5330000F5330000000000000000000070
:100080000000000000000000000000000000000070
:100090000000000000000000000000000000000060
:1000A0000000000000000000000000000000000050
:1000B0000000000000000000000000000000000040
:1000C0000000000000000000000000000000000030
:1000D0000000000000000000000000000000000020
:1000E0000000000000000000000000000000000010
:1000F0000000000000000000000000000000000000
:1001000000000000000000000000000000000000EF
:1001100000000000000000000000000000000000DF
:1001200000000000000000000000000000000000CF
:1001300000000000000000000000000000000000BF
:1001400000000000000000000000000000000000AF
:10015000000000000000000000000000000000009F
:10016000000000000000000000000000000000008F
:10017000000000000000000000000000000000007F
:10018000000000000000000000000000000000006F
:10019000000000000000000000000000000000005F
:1001A000000000000000000000000000000000004F
:1001B000000000000000000000000000000000003F
:1001C0000348044B834202D0034B03B118477047E6
:1001D000DC100020DC10002000000000064B074966
:1001E000C91A891048BF0131491003D0044B0BB123
:1001F00001481847704700BFDC100020DC100020C9
:100200000000000010B5064C237843B9FFF7D8FF73
:10021000044B13B10448AFF300800123237010BDD9
:10022000F8100020000000002857000008B5054B1A
:100230001BB105490548AFF30080BDE80840FFF752
:10024000CDBF00BF00000000FC10002028570000B8
:1002500008B50160002141600261436100F53D7015
:1002600000F021F808BDF8B504460D460A46012104
:1002700000F5327000F03CFF0646294604F5187080
:1002800000F040FC04F5FC772946384600F078F988
:10029000183432462946204600F0DDFF7834BC424F
:1002A000F7D1F8BD70470028FDD0002303704370DC
:1002B0008370C370037143718371C3718360C360C2
:1002C000704730B505460288DAB144684FF0000C3B
:1002D00004E0431C1FFA83FC94450ED20CEB02038E
:1002E0004FEA630EC3F34F0034F83E308B4207D021
:1002F000EFD938B1431E9AB2EEE703D04FF6FF7044
:1003000030BD94466B6833F83C304FF6FF708B423B
:1003100008BF6046F4E7A8B110B40C78072C00D9E8
:10032000FEE780F8344054B10B4600F1340100225E
:1003300053F8040F41F8040F0132A242F8D15DF8DE
:10034000044B7047FEE7FFFF2DE9F84FC37843F0F9
:100350008003C37090F83430002B58D0054689468E
:1003600080464FF0000A54464FF6FF7B98F83A70EB
:1003700098F83B60B8F838104846FFF7A2FF584598
:1003800015D0B9F8003083421BD9D9F8043003EBFB
:10039000C0039A78BA4214D907EB4707596811EBA2
:1003A00087010ED0AEB3214B186800231DE0204B0F
:1003B000103503F1080245F8043F01339342FAD1A6
:1003C00025E01B4B103503F1080245F8043F0133CB
:1003D0009342FAD11BE005EB840250610134E4B290
:1003E000082C0BD80133B34213D0CA889A42F2DDED
:1003F00005EB84070A681A447A61EFE70C4B103565
:1004000003F1080245F8043F01339342FAD1BDE8F5
:10041000F88FEB7823F08003EB700AF1010A08F102
:10042000040895F834305345A0DCF0E7C4070020F9
:10043000C807002048B138B514460546FFF76BFFE2
:1004400021462846FFF780FF38BD704710B582B0BF
:1004500004460191802380F8203001AA00F1230393
:10046000273012F8011B03F8011F8342F9D108233A
:1004700084F82830094B1B6804F118009847019B49
:10048000A3650023A4F84C30637584F8543084F8D5
:100490006030032384F8613002B010BDC007002033
:1004A00081650023A0F84C30437580F8543080F803
:1004B0006030032380F86130704710B4012303706B
:1004C00083694FF4C06464F31C038361082380F8DC
:1004D0002830002380F8293044684FF4B06C6CF366
:1004E0001C04446043758385C38580F83030B1F8BF
:1004F00064404486896E4163A0F8403080F8423001
:1005000043648364A0F84C30A0F84E30026580F854
:1005100054308365C36580F8603080F861305DF8E1
:10052000044B704710B5029C4FF0010C80F861C07D
:1005300001F07F0190F818E061F3060E80F818E0F2
:1005400090F804E061F3060E80F804E0A0F8402083
:1005500080F84230BDF80C30A0F84E302279074BBD
:100560001A71E288DA8022681A60A2689A6043648D
:1005700080F854C0102380F8603010BD181100209E
:1005800070B582B004460378002B00F06C8290F8BE
:100590006030002B00F06A82B0F84C203AB1114470
:1005A00089B2A0F84C10B0F84E208A4207D3216DD2
:1005B000628EC88B904207D062B1012554E2B549E2
:1005C000FFF76EFF03254FE222B1606B4A6A1042CB
:1005D00000F04E82627D22B994F8542042B9012580
:1005E00042E20022A4F84C20227B5209042A0BD0BC
:1005F000103B052B00F23582DFE813F01A0066008D
:10060000CA002C015601CD01237C8DF80030637C9B
:100610008DF80130A37C8DF80230E37C8DF8033037
:10062000009BE3650023637584F8603003251BE2BB
:10063000002384F83030A385B4F8403084F82130AA
:100640001B0A84F8223094F8423084F82330626C1C
:10065000D188E185042915D8C1F104039B0003F07A
:100660000C0343F0230384F820301068D9B103460B
:1006700004F12302084413F8011B02F8011F83420E
:10068000F9D110E0212384F8203084F82410C1F33C
:10069000072384F82530C1F3074384F82630C1F3DB
:1006A000076184F827107C4B1B6804F118009847F9
:1006B0000125A4F84C50002384F85430112384F809
:1006C000603000236375CFE1257B6D09032D40D198
:1006D000637B8DF80030A37B8DF80130BDF80030CE
:1006E000E17BB4F840209A4239D194F842308B42F1
:1006F00035D1E38D042B37D9626C1268A18D073197
:100700008B4236DCDDB213F0FF0009D0134604F152
:100710002001024413F8010B01F8010F9342F9D1B3
:10072000E38DA385C5F1070294F8303043EA420314
:1007300043F00103DBB284F820300125A4F84C50CB
:10074000554B1B6804F118009847122384F8603059
:10075000B7E752492046FFF779FE0325B1E7504934
:100760002046FFF773FEACE7002384F860300225D3
:10077000A7E7531E04F12001063213F8010F01F818
:10078000010F9342F9D10723A38594F83030D2E7C3
:10079000237B5D09012D3CD194F8302003F0100338
:1007A00093423CD182F0100284F83020E38DA18D79
:1007B0008B423AD9626C12680A44C81D834239DC04
:1007C0005B1A13F0FF000BD0531E04F12001461EEC
:1007D00012FA86F613F8012F01F8012FB342F9D16E
:1007E000E38DA385C0F1070394F8302042EA430368
:1007F00043F00103DBB284F820300123A4F84C302D
:10080000254B1B6804F118009847122384F86030C8
:1008100057E722492046FFF719FE032551E72149F2
:100820002046FFF713FE03254BE7002384F86030D2
:10083000022546E7531E04F12001063213F8010F8A
:1008400001F8010F9342F9D1A38D0733A38594F8E2
:100850003030D0E7002684F83060A685B4F8403008
:1008600084F821301B0A84F8223094F8423084F84E
:100870002330402384F82030074B1B6804F1180014
:1008800098470125A4F84C5084F85460142384F848
:10089000603016E700000405C007002023000A06A8
:1008A0004300040600000305237B590902293AD1BD
:1008B000627B8DF80020A27B8DF80120BDF800201E
:1008C000E57BB4F84000904233D194F84220AA422C
:1008D0002FD103F00305032D31D0012D55D1237CF9
:1008E0008DF80030637C8DF80130A37C8DF80230E8
:1008F000E37C8DF80330BDF80030E385626CD2886C
:100900009A423CD30023A385602384F8203001233E
:10091000A4F84C30574B1B6804F118009847152376
:1009200084F86030CDE654492046FFF78FFD03255B
:10093000C7E652492046FFF789FD0325C1E6C3F308
:100940008103C3F104039BB2E385626CD0889842B3
:1009500010D304F10F001268134410F8015F02F87D
:10096000015B9A42F9D1E38DA385002384F86030BE
:100970000D46A6E642492046FFF792FDA1E6404912
:100980002046FFF763FD03259BE63E492046FFF71F
:100990005DFD032595E6227B530928D194F830307C
:1009A00002F01001994228D183F0100384F830300E
:1009B000A08D636C1B680344E18DC51DA94229DC31
:1009C00012F0010F1FD0091A88B248B104F10C01CE
:1009D0001A46034411F8010F02F8010B9A42F9D1AB
:1009E000E38DA385002384F86030022569E622495F
:1009F0002046FFF72BFD032563E623492046FFF73A
:100A000025FD03255DE64FF000612046FFF71EFD42
:100A1000032556E612F0010F1CD104F10C02013B34
:100A200004F1130012F8011F03F8011F8242F9D1EB
:100A3000A38D0733A38594F8303043F0600384F826
:100A400020300C4B1B6804F1180098470125A4F8CE
:100A50004C5036E64FF000612046FFF7F7FC0325C7
:100A60002FE601252DE6012584F8615002B070BD06
:100A70000125F9E7C007002023000A064300040609
:100A800005000405100007060000030530B401242A
:100A9000047091F85C4004F5B064856964F31C054A
:100AA0008561082480F82840002480F8294091F8C6
:100AB0005CC00CF5C06C45686CF31C0545600475A2
:100AC00044758485C48580F83040B1F85E50458611
:100AD0000487C363A0F8404080F8424044648464C3
:100AE000A0F84C40B1F86030A0F84E30026580F8B4
:100AF00054408465C46580F8604080F8614030BC33
:100B00007047FFFF30B583B004460378002B00F038
:100B1000AF82B0F84C303BB1194489B2A0F84C1008
:100B2000B0F84E308B4208D3637D5BB994F85430F3
:100B3000002B40F0A682012503E2A549FFF7B0FC97
:100B4000032303E20023A4F84C30257B6D09042D18
:100B50000FD094F8603003B394F86030113B042B4D
:100B600000F28282DFE813F072000D018002BD0105
:100B70001702237C8DF80030637C8DF80130A37C54
:100B80008DF80230E37C8DF80330009BE365002391
:100B9000637584F860300323D8E16B1EDBB2012B50
:100BA00038D8637B8DF80030A37B8DF80130BDF819
:100BB0000010A4F84010E37B84F84230E06BFFF7AC
:100BC00080FB20874FF6FF73984200F05382E26B60
:100BD00094F842301188814240F24C82526802EB14
:100BE000C0029178994240F2458203EB4303990099
:100BF000526802EB83036364002B00F03D82012DF9
:100C00000ED01B7913F0010F18BF142319D084F8EC
:100C10006030A1E76F492046FFF718FC032395E1F8
:100C2000187910F0020F05D09B6843B11B68A364CC
:100C30001123ECE768492046FFF708FCEEE753581C
:100C4000F5E765492046FFF701FCE7E794F85430E3
:100C5000002B35D1002384F83030A385637B84F8E2
:100C60002130A37B84F82230E37B84F82330237B7C
:100C700003F00305032D47D0012D7CD1237C8DF893
:100C80000030637C8DF80130A37C8DF80230E37C6A
:100C90008DF80330BDF80030E385626CD2889A424B
:100CA00063D3602384F820300123A4F84C304B4BED
:100CB0001B6804F118009847122384F860303EE165
:100CC000636C9B685B68984703280FD0022818BFA5
:100CD000012540F03481002384F85430A4F84C30CE
:100CE0003F492046FFF7B2FB032528E1002584F8A1
:100CF0005450A4F84C50394B1B6804F11800984725
:100D000084F8605002251AE1C3F38102C2F10402A3
:100D100092B2E285636CDB88934217D304F10F0132
:100D2000A36C1A4411F8010F03F8010B9A42F9D190
:100D3000E38DA385602384F82030636C9B6853B1F6
:100D40000125A4F84C5084F85450F8E02549204679
:100D5000FFF77CFBF3E0214B1B6804F11800984778
:100D6000002384F860300225E9E01E492046FFF7A1
:100D70006DFB0325E3E01C492046FFF767FB0325D5
:100D8000DDE094F854308BB3636C9B685B689847E4
:100D900003280FD0022818BF012540F0D08000237F
:100DA00084F85430A4F84C300D492046FFF74EFB30
:100DB0000325C4E0002584F85450A4F84C50074B98
:100DC0001B6804F11800984784F860500225B6E0CB
:100DD000000004050100040500000106C007002012
:100DE000210000080500040510000706257B6B099B
:100DF0002DD194F8302005F010039A422DD1A18D09
:100E0000A36C0B44E28DC81D82423DDC15F0010548
:100E100029D0521A90B248B104F10C011A46034489
:100E200011F8010F02F8010B9A42F9D1E38DA38565
:100E300094F8303043F0200384F82030636C9B68D2
:100E4000C3B10123A4F84C3084F8543077E09649BC
:100E50002046FFF7FBFA032571E094492046FFF78F
:100E6000F5FA03256BE04FF000612046FFF7EEFA3C
:100E7000032564E08E4B1B6804F11800984700239B
:100E800084F8603002255AE015F0010F22D104F1F8
:100E90000C02013B04F1130012F8011F03F8011FBB
:100EA0008242F9D1A38D0733A38594F8303043F003
:100EB000200384F820300125A4F84C507C4B1B689B
:100EC00004F11800984794F8303083F0100384F848
:100ED000303034E04FF000612046FFF7B7FA0325C9
:100EE0002DE0002384F83030A385637B84F8213023
:100EF000A37B84F82230E37B84F82330616CCA88BA
:100F0000E285042A26D9412384F8203084F824205D
:100F1000C2F3072384F82530C2F3074384F8263050
:100F2000C2F3076284F82720614B1B6804F11800A4
:100F300098470125A4F84C50152384F8603000230D
:100F4000637594F86030002B18BF2B4684F861302D
:100F500003B030BDC2F104039B0003F00C0343F067
:100F6000430384F8203008684AB1034604F12301A2
:100F7000104413F8012B01F8012F8342F9D14C4B97
:100F80001B6804F118009847E38DA385002384F8BB
:100F900060300225D3E7237B5D09032D2DD194F822
:100FA000302003F010039A422DD1A28D636C196892
:100FB0001144E38DD01D83422ADD4B1E04F1200233
:100FC000063113F8010F02F8010F8B42F9D1A38DFE
:100FD0000733A38594F8303084F82030344B1B68F5
:100FE00004F1180098470125A4F84C5094F83030CB
:100FF00083F0100384F83030A1E72B492046FFF737
:1010000025FA03259BE729492046FFF71FFA96E7B3
:101010009B1A13F0FF000BD04B1E04F12002451E5B
:1010200011FA85F513F8011F02F8011FAB42F9D13F
:10103000E38DA385C0F1070394F8302042EA43030F
:1010400043F0010384F82030194B1B6804F11800A9
:10105000984794F8303083F0100384F83030002340
:1010600084F8603002256AE7012568E7012566E714
:1010700001236BE7002363640E492046FFF7E6F97E
:10108000CCE594F86030113B042BEFD801A252F864
:1010900023F000BFC10C0000830D00006D100000A4
:1010A000E30E0000970F000023000A06000003056E
:1010B000C00700201100090603460A4603210174F7
:1010C000111D03C983E80300002159749089988297
:1010D000D089D882B2F85800188392F85A209A76AC
:1010E0009983D98383F82010596283F828107047B8
:1010F000C17890F90330002B57DB10B582B004465D
:10110000838B1A4492B2934238BF828311F0400F0E
:1011100033D0828B838A9A4245D3C38B01339BB2EF
:10112000C383028B9A420FD20123C38390F82030ED
:101130000133DBB2827E9A4238BF002380F8203030
:10114000012202FA03F34362E38B2372C3F3072302
:10115000637294F82030A372154B1B6820469847A1
:101160000023A3830120A38BE28A93428CBF002338
:10117000012384F8283002B010BD407C0028F2D052
:10118000237A8DF80030637A8DF80130BDF8003095
:10119000E383A27A84F82020012393406362002332
:1011A000A3836374DFE70020DDE70020704700BF02
:1011B000C007002010B5044690F87330022B0FD002
:1011C00000F11003C21D303053F8041F097802F8F3
:1011D000011F8342F8D1064B1B682046984710BD7B
:1011E000436F08309847024B1B6820469847F6E744
:1011F000C00700202DE9F04104460E461146069D29
:101200009DF81C80089F1A46FFF714F92B68E365C8
:101210002A89A4F864206A89A4F86620A989A4F818
:101220006810A87B84F86A002360082323740023D5
:101230006374A66584F8701084F8712084F87230A5
:1012400084F873806767B8F1020F01D0BDE8F081C0
:10125000002FFBD1FEE708B590F90330002B14DB1B
:10126000B0F864304FF6FF718B420BD06AB1826DDB
:10127000D18B99420DD043B990F872302BB1FFF762
:1012800099FF02E090F8723003B908BDFFF792FFB2
:10129000FBE7C16E526A1142EDD0FFF78BFFF4E716
:1012A000B0B1B9B110B40D4A1468421E01390144FD
:1012B0004FF6FF7012F8013F83EA102334F8133021
:1012C000000280B258408A42F4D15DF8044B704766
:1012D000002070474FF6FF70704700BFD007002016
:1012E0009AB110B41346094A14680139CA1811F8A2
:1012F000013F83EA102334F81330000280B25840D3
:101300009142F4D15DF8044B70477047D00700203C
:1013100030B58BB005461F4C0DF1080C04F1800E62
:10132000BEE80F00ACE80F009EE80F008CE80F004D
:101330000DF1090105F10C0000F0A2F90DF1170102
:1013400005F12C0000F09CF94FF480332B614FF431
:1013500020332B630DF1080E04F1C00CBCE80F0024
:10136000AEE80F009CE80F008EE80F009DF80830F3
:101370008DF800309DF809308DF801309DF80A3065
:101380008DF802309DF80B308DF80330009B6B60B8
:101390000BB030BD0004000838B504460D460023EC
:1013A00001F8013B0C3000F094F905F10F0104F154
:1013B0002C0000F08EF938BDC0F86C14704701782D
:1013C000052909D00DD90639C9B2012915D841F22C
:1013D00088314FF0000C08E040F28A214FF0000CF9
:1013E00003E041F288314FF0000C89184CEB030305
:1013F000C0F86014C0F86434704700218C46F4E7EC
:1014000003788B4202D00170012303727047FFFF03
:1014100070B590B00446402632460021684603F07D
:101420001AFF144DEC4605F1800EBEE80F00ACE843
:101430000F00BEE80F00ACE80F00BEE80F00ACE8FC
:101440000F009EE80F008CE80F0069462046FFF76A
:10145000A3FFD4F86C341B6A3246694605F180005C
:10146000984708B910B070BD07212046FFF7C8FFA4
:10147000F8E700BF0004000810B504460C3000F087
:101480004BF900B910BDA38AA386637E84F8393076
:10149000E368E362E28A237EE28684F838302046FD
:1014A000FFF7B6FFD4F8703420469847EAE710B546
:1014B0000446838E838290F839304376C36AC360D2
:1014C000C28E90F83830C2820376FFF7A1FFD4F8BD
:1014D00074342046984710BD10B504464368012B6C
:1014E00017D0022B19D0D0F86C34DB69984704F17F
:1014F0000C0000F011F9E0B904F12C0000F00CF937
:10150000E0B9012384F8683405212046FFF778FF0D
:1015100010BD0121FFF774FFFAE70121FFF770FF0B
:10152000D4F87834002BF3D107212046FFF768FF69
:10153000EEE705212046FFF763FFE9E72046FFF7C6
:10154000B6FF05212046FFF75BFFE1E710B5044633
:10155000D0F86C341B689847002384F86834204620
:10156000FFF7D6FE2046FFF7B7FF10BD10B50446C3
:101570000C3000F0E6F870B1E1682069FFF790FEEA
:10158000A082002363762046FFF742FF0621204613
:10159000FFF736FF10BD07212046FFF731FFF9E7BF
:1015A00030B591B005460DF1040C0F4C0FCCACE8F2
:1015B0000F000FCCACE80F000FCCACE80F0094E8A4
:1015C00007008CE8070000230093D5F86C341B6AF1
:1015D000402269460548984708B911B030BD072137
:1015E0002846FFF70DFFF8E7C4040008C004000810
:1015F00070B588B0044600234376FFF73DFF04F141
:101600000C06304600F0BCF86368022B14D0D4F806
:10161000803420469847D4F86C34DB6920469847DC
:10162000D4F86C349B68204698472046FFF7B8FFF3
:101630000023636008B070BDD4F87C34204698471E
:10164000D4F86C34DB69204698474FF47C43E3645C
:10165000EC460A4D0FCDACE80F0095E80F008CE882
:101660000F0001A9304600F00BF84FF480332361DE
:1016700002212046FFF7C4FED7E700BFC0040008E0
:1016800082B00B788DF800304B788DF801308B7874
:101690008DF80230CB788DF80330009BB3F5403FD6
:1016A00028BF4FF4403303600B7A003B18BF01237F
:1016B0004373B1F80920CB7A428103730B7B8DF819
:1016C00000304B7B8DF80130BDF80030038102B053
:1016D000704703680B70C3F307224A70C3F30742D5
:1016E0008A70C3F30763CB7043680B71C3F307229F
:1016F0004A71C3F307428A71C3F30763CB71437B1B
:101700000B724289037BA1F80920CB7203890B730A
:10171000C3F307234B73704708B5C369984708BDE7
:1017200010B504460168B1F5403F28BF4FF4403181
:101730004068FFF7B5FD2389834214BF00200120D4
:1017400010BD10B5044601684068FFF7A9FD238964
:10175000834214BF0020012010BD38B50446016942
:1017600051F80C0B63694FF4806298470546206975
:101770004FF48062FF210C3003F06DFD284638BD28
:1017800008B5836906214068984708BD10B504462E
:1017900081880C30FFF784FD2389834214BF002029
:1017A000012010BD08B5806A036A984708BD08B5D6
:1017B000806A8369984708BD10B5806AC469A047EC
:1017C00010BD00B585B08DF8071001230DF10F0293
:1017D0000DF10701FFF7F0FF9DF80F0005B05DF870
:1017E00004FB08B5806A8368984708BD08B5806A1D
:1017F000C368984708BDF8B50546FFF7F2FF9F217B
:101800002846FFF7DEFFA5212846FFF7DAFF074647
:10181000A5212846FFF7D5FF0446A5212846FFF756
:10182000D0FF06462846FFF7E1FF240244EA0744BA
:1018300044EA0600F8BDF8B50546FFF7D2FF4B2194
:101840002846FFF7BEFF0424A52631462846FFF7A9
:10185000B8FF631E13F0FF04F7D12C4605F108070B
:10186000A52631462846FFF7ACFF04F8010FBC421D
:10187000F7D12846FFF7BAFFF8BD10B50446FFF7C9
:10188000B0FF06212046FFF79CFF2046FFF7AEFF82
:101890004FF47A71012003F02FFB10BD38B50446D8
:1018A0000D46FFF79EFF012D11D0022D1BD01521F3
:1018B0002046FFF786FFA5212046FFF782FF054659
:1018C00084F826002046FFF791FF284638BD052101
:1018D0002046FFF776FFA5212046FFF772FF054659
:1018E00084F82400EEE735212046FFF76AFFA521A2
:1018F0002046FFF766FF054684F82500E2E7FFFF74
:1019000010B504463348A0624FF4867100F09EFC87
:10191000012084F827004FF47A7103F0EDFAA06AF1
:10192000836898472046FFF766FFC0B211380F283A
:101930004ED8DFE800F04643403D3A37340C084DBE
:101940004D4D4D4D4D4908224FF4007302E00722E2
:101950004FF480732270E3614FF4807262814FF420
:10196000805222611A0162611A02E2604FF48032F1
:10197000A2619B0123622046FFF75DFF0121204603
:10198000FFF78CFF02212046FFF788FF0321204646
:10199000FFF784FF0120002384F8273010BD0622C2
:1019A0008023D7E705224023D4E704222023D1E770
:1019B00003221023CEE702220823CBE701220423CF
:1019C000C8E700220223C5E709224FF48063C1E77C
:1019D0000020E0E734210020F8B504464FF47A7186
:1019E000012003F089FA2046FFF7FBFE052120467F
:1019F000FFF7E7FEA5274FF47A7601253946204602
:101A0000FFF7DFFE84F824003146284603F074FA1D
:101A100094F8243013F0010FF0D12046FFF7E6FED2
:101A2000F8BDF8B504460F4690F82730012B0AD1CF
:101A30004FF47A7601253146284603F05DFA94F892
:101A40002730012BF7D0012384F827302046FFF7F9
:101A5000C3FF236903FB07F72046FFF70EFF20466D
:101A6000FFF7BFFE2378072B29D921212046FFF756
:101A7000A8FE390E2046FFF7A4FEC7F30741204613
:101A8000FFF79FFEC7F307212046FFF79AFEF9B242
:101A90002046FFF796FE4FF47A71C82003F02CFA27
:101AA0002046FFF7A3FE2046FFF796FF4FF47A711A
:101AB000012003F021FA002384F82730F8BD20210B
:101AC0002046FFF77EFED8E72DE9F0470446894619
:101AD00092461F46DDF8208090F82730012B0AD16E
:101AE0004FF47A7601253146284603F005FA94F83A
:101AF00027000128F7D0012384F82730638908EBF9
:101B000007029A4202D8B8F1000F01D1A3EB0708EF
:101B10002046FFF761FF2046FFF7AFFE2046FFF7A4
:101B200060FE63890AFB03772378072B2FD91221E4
:101B30002046FFF746FE390E2046FFF742FEC7F368
:101B400007412046FFF73DFEC7F307212046FFF778
:101B500038FEF9B22046FFF734FE42464946204699
:101B6000FFF725FE4FF47A71032003F0C5F92046F4
:101B7000FFF73CFE2046FFF72FFF4FF47A7101205C
:101B800003F0BAF9002384F82730BDE8F08702217A
:101B90002046FFF716FED2E72DE9F04383B08046DA
:101BA0000F460A9C0569A54203D3002C08BF2C46AA
:101BB00000E02C469D4224D9E1188D4238BFEC1A32
:101BC000B8F80A1002FB05F5B5FBF1F5B3FBF1F22D
:101BD000154401FB12364FF00009009433462A46A3
:101BE00039464046FFF770FF0135B8F80A309B1BB5
:101BF000E41A1F444E46002CEFDC012003B0BDE880
:101C0000F0830020FAE72DE9F04704468946924622
:101C10001F46DDF8208090F82730012B0AD14FF4C1
:101C20007A7601253146284603F066F994F82700B4
:101C30000128F7D0012384F82730638943453DD339
:101C4000B8F1000F08BF984608EB0702934238BF6F
:101C5000A3EB07080AFB03772046FFF7C2FD2378B2
:101C6000072B2DD90C212046FFF7ABFD390E20465E
:101C7000FFF7A7FDC7F307412046FFF7A2FDC7F313
:101C800007212046FFF79DFDF9B22046FFF799FD99
:101C900000212046FFF795FD424649462046FFF7C2
:101CA00081FD2046FFF7A2FD4FF47A71012003F079
:101CB00023F9002384F82730BDE8F0879846C3E76E
:101CC0000B212046FFF77DFDD4E72DE9F04383B0DB
:101CD00080460F460A9C0569A54203D3002C08BF25
:101CE0002C4600E02C469D4224D9E1188D4238BF95
:101CF000EC1AB8F80A1002FB05F5B5FBF1F5B3FBD9
:101D0000F1F2154401FB12364FF0000900943346FE
:101D10002A4639464046FFF776FF0135B8F80A30C3
:101D20009B1BE41A1F444E46002CEFDC012003B03D
:101D3000BDE8F0830020FAE708B503689A681268E6
:101D400059681868904708BD08B5C2691378012B17
:101D50000DD0036A013B0362012B05D91378022BD6
:101D6000F4D18368984705E08368984702E04FF014
:101D7000FF33036208BD08B50368186800F0FAFF76
:101D800008BD38B50446006807230122006801F049
:101D900007F905462046FFF7D7FF284638BD38B576
:101DA000044600680723006801F001F90546204653
:101DB000FFF7CAFF284638BD30B583B00446006837
:101DC00000680725009501F0F8F805462046FFF762
:101DD000BBFF002D14BF1220002003B030BD0160F6
:101DE0007047FFFF0279014B1A707047F809002015
:101DF00008B50348034B03604368984708BD00BF1C
:101E0000D40900201C54000010B50C4C0C4920468D
:101E100002F0FEFD204602F0A1FE0A4C0A492046CF
:101E200002F0F6FD204602F099FE084C08492046D3
:101E300002F0EEFD204602F091FE10BD143A0020A3
:101E40008C530000343A0020C0530000543A002064
:101E5000F453000008B5084B9A68126B1868904755
:101E6000064B9A68126B18689047054B9A68126B7C
:101E70001868904708BD00BF80530000B4530000AD
:101E8000E853000008B5037913B90248036898477E
:101E900008BD00BF2411002008B5037913B902481A
:101EA0004368984708BD00BF2411002008B5037996
:101EB00013B902488368984708BD00BF2411002069
:101EC00070B50E4615461C46012824D0022829D09C
:101ED000002240F20231354801F0DAFA012E2ED00C
:101EE000022E32D000220D21304801F0D1FA012D0E
:101EF00036D0022D3AD000220E212C4801F0C8FA2B
:101F0000012C3ED0022C43D0002240F2062127486B
:101F100001F0BEFA70BD012240F20231234801F007
:101F2000B7FADBE7224BD3F8C820C2F3400282F0B5
:101F3000010240F202311D4801F0AAFACEE7012267
:101F40000D211A4801F0A4FAD1E7194B5A6BC2F3DC
:101F5000400282F001020D21144801F099FAC6E70F
:101F600001220E21114801F093FAC9E7104B9A6B38
:101F7000C2F3400282F001020E210C4801F088FAFF
:101F8000BEE7012240F20621084801F081FAC1E7CC
:101F9000074BD3F89820C2F3400282F0010240F2CE
:101FA0000621024801F074FAB4E700BF803900202E
:101FB0000008084010B5054C0549204601F014FD05
:101FC00001220221204601F0E1FE10BDC8390020A7
:101FD0006C53000008B5024801F022FC08BD00BFA8
:101FE000C8390020F0B583B004460D4600238DF8B3
:101FF00007300A460146134801F07AFEB0B9C5B170
:1020000004EBC5350F4F4FF400460DF10703324680
:102010002146384601F0C6FD68B99DF80730012B0E
:102020000DD004F50044AC42EFD106E04FF0FF3094
:1020300003E0002001E04FF0FF3003B0F0BD4FF0AF
:10204000FF30FAE7C839002072B1431E013910444D
:1020500000F1FF3C13F9010F11F9012F904205D156
:102060006345F7D101207047012070470020704779
:10207000F8B505460E461446134602460A4801F0D6
:10208000F7FD68B9094F22462946384603F0D6F8CD
:10209000224631463846FFF7D7FF013840B2F8BD37
:1020A0004FF0FF30FBE700BFC8390020301100209F
:1020B0002DE9F04182B000AF04460D4616460023DC
:1020C000FB7162B601220146334801F011FE00287F
:1020D00056D1324B93F80080B8F1000F06D0304A49
:1020E0001378002BFCD02E4B00221A70FB1D4022CF
:1020F0002146294801F056FD002844D1FB79012BE7
:1021000044D0022B28D0334622462946224801F0EB
:10211000AFFD00283DD1B8F1000F06D0214B187853
:102120000028FCD01F4B00221A70F31DDB086A4602
:10213000A2EBC3039D4632462946684603F07EF86B
:102140002946684603F070F8003818BF0120404265
:102150000837BD46BDE8F081134A1449137813B916
:102160000B78002BFAD0104B1B781BB90F4B0022B9
:102170001A70C8E70C4B00221A704FF0FF30E7E7E7
:102180004FF0FF30E4E74FF0FF30E1E74FF0FF3072
:10219000DEE74FF0FF30DBE7C83900206C5300006A
:1021A0003121002030210020332100203221002065
:1021B0000378032B12D8DFE803F00A0E0602084B5F
:1021C00001221A707047074B01221A707047064BA4
:1021D00001221A707047054B01221A70704700BF28
:1021E0003321002032210020312100203021002025
:1021F00008B500684368984708BD08B5006883685B
:10220000984708BD08B500680369984708BD10B530
:1022100000684469A04710BD08B50068C3689847C6
:1022200008BDFFFF08B501228188024801F030F99E
:1022300008BD00BF8039002008B50022818802480F
:1022400001F026F908BD00BF8039002010B5044612
:1022500081800D4B83600D4BC3600D4B03610D4BB3
:1022600043610D4B83610D4BC3610D4B0362012232
:102270000C4801F00DF900B110BD0B4820600B496E
:10228000FFF7ADFDF8E700BF39220000252200006E
:10229000F1210000FB210000052200000F220000B8
:1022A0001922000080390020D40900201C540000AD
:1022B00008B5084B0821997300221A735A7383F8E2
:1022C000221083F8202083F821200349034802F0DC
:1022D00059F808BD582100202853000088390020F3
:1022E0008288B2F5806F11D108B50346084A02F121
:1022F000280C006A596AACE80300997E82F8221023
:102300005B69D361136B1046984708BD704700BFE7
:102310005821002010B5654B93F8383353B9634BFF
:1023200093F83033072B0ED8DFE803F00E283E5623
:102330006E84A5B95E4C5F4BD3E900232046FFF7BE
:102340003EF80023237210BD584AD2F89037D2F8D5
:102350009417584A1068526898428A4106D30B4332
:1023600004D007215248FFF74BF8ECE7504C2046C9
:10237000FFF7ECF8204600F05DFCE4E74B4AD2F8AA
:102380009037D2F894174B4A1068526898428A41A5
:1023900001D30B4303D14648FFF72AF9D3E70721BE
:1023A0004348FFF72DF8CEE7404AD2F89037D2F8ED
:1023B0009417404A1068526898428A4101D30B43EF
:1023C00005D13B48D0F86C34DB689847BBE7072160
:1023D0003748FFF715F8B6E7344AD2F89037D2F805
:1023E0009417344A1068526898428A4101D30B43CB
:1023F00005D12F48D0F86C341B699847A3E7072113
:102400002B48FEF7FDFF9EE7284AD2F89037D2F816
:102410009417284A1068526898428A4101D30B43A6
:1024200003D12348FFF7A2F88DE707212048FEF7E4
:10243000E7FF88E71D4AD2F89037D2F894171D4A73
:102440001068526898428A4105D30B4303D0174B5A
:1024500093F8983753B1154B93F83933012B7FF428
:1024600072AF01211248FEF7CBFF6CE7062110483E
:10247000FEF7C6FF67E70D4AD2F89037D2F89417F7
:102480000C4A1068526898428A41FFF45CAF0B43D3
:102490003FF459AF06210648FEF7B2FF53E7044860
:1024A000D0F86C349B6998474DE700BF9831002005
:1024B000C83400209031002008B501210148FDF703
:1024C000D2FE08BD9831002008B51C4A1368516837
:1024D000013341F1000113605160194A136801335F
:1024E0001360012B0BD0C82B0FD0B3F5C87F13D0CE
:1024F000B3F5167F17D0B3F5487F1BD008BD002277
:1025000011461046FFF7DCFCF8E7002301221946CC
:102510001846FFF7D5FCF1E700231A4601211846BB
:10252000FFF7CEFCEAE700231A4619460120FFF721
:10253000C7FCE3E7024B00221A60DFE7903100207E
:102540008C21002008B5054B054A1A60054A5A60DF
:10255000054A9A60FFF758FC08BD00BF241100200F
:10256000C9240000B9240000152300007047FFFFB4
:10257000034BB3F88E22A3F880230320704700BFDB
:1025800098310020024B042283F830230320704747
:102590009831002008B50648FFF7F8F808B902207E
:1025A00008BD03210348FEF72BFF0320F8E700BF17
:1025B00014350020C834002008B50348FFF7C1F8DF
:1025C0000230C0B208BD00BFD4340020704770474D
:1025D00070477047C2692A4BD3F8C832C3F31C0353
:1025E0009A420ED0264BD3F8FC31C3F31C039A4217
:1025F00023D0234BD3F86432C3F31C039A4230D068
:1026000070471F4B93F8CB3213F0400FF8D11C4B9F
:1026100093F8D81261B100F127031A4A013910FA70
:1026200081F0283013F8011F02F8011F8342F9D10D
:10263000134B012283F8D9227047114B93F858327B
:10264000002BD6D000F127030F4A2F3013F8011FBB
:1026500002F8011F8342F9D1094B012283F80D22B0
:10266000704700F12703094A2F3013F8011F02F8C1
:10267000011F8342F9D1024B012283F87522BFE783
:1026800098310020673400209B3300200334002061
:1026900010B50346094C04F114028068D96803C2DE
:1026A0001A68C2F31C02A2601B7CA37304F1080227
:1026B0006168034801F0B6FD10BD00BF582100203D
:1026C000883900202DE9F04F85B0FFF74FFF254BEB
:1026D000254A1A60254AA2F14804254D254B1B685E
:1026E00052F8481C2846FDF7B3FD214605F5327027
:1026F000FEF7E2FC204E183504F5CE7704F5A674FB
:1027000006F1100BA5F1180808F5327A4FF002090E
:1027100056F8043B0293CDF804900094D8F8143096
:102720003A4651462846FEF765FD7835243714347D
:102730005E45EDD10E4C04F53276104D636932469C
:10274000294604F51870FEF7A1F93246294604F52A
:10275000FC70FDF7B2FE0A4B0A4A1A6305B0BDE8E9
:10276000F08F00BFC007002091260000440A00201F
:1027700098310020380C0020740F0020FC09002044
:1027800058210020D5250000704770477047FFFF93
:10279000BFF34F8F0549CA6802F4E062044B13434C
:1027A000CB60BFF34F8F00BFFDE700BF00ED00E03F
:1027B0000400FA0508B572B6FFF75AFC62B608BD08
:1027C00008B5FFF775FC08BD08B5FFF77BFFFFF7FD
:1027D0006FFD08BD10B504460C30FEF7BEFF48B9CA
:1027E000B4F852300133A4F8523002212046FEF7EB
:1027F00007FE10BD07212046FEF702FEF9E7FFFFA6
:102800002DE9F04387B006460F4600241C4D05F520
:10281000FC78A8F5FC7995F85932002BFDD1039688
:1028200003218DF810100123ADF812300023059319
:1028300041F28833019303AB0093062342F2010275
:102840004046FDF76FFE99F85932012BFDD0032B5E
:102850000DD1002385F859320134E3B2BB42DAD9F5
:1028600007213046FEF7CCFD07B0BDE8F083044BEE
:10287000002283F8592202213046FEF7C1FDF3E71A
:102880009831002010B504460C30FEF766FF68B999
:10289000B4F852300133A4F8523002212046FEF73A
:1028A000AFFD03212046FFF7ABFF10BD07212046F7
:1028B000FEF7A6FDF9E710B504460221FEF7A0FDDC
:1028C00094F86834002B0CBF0321F1212046FFF758
:1028D00097FF10BD08B5FFF77DFB08BD08B5FFF7F2
:1028E00069FB08BD08B5FFF783FA0248FFF708F84F
:1028F00008BD00BF50390020C36CC26802F58032A9
:10290000934204D30F4B042283F83023704710B551
:1029100082B003F58062C264A3F57C431A0B0A4CB3
:102920004FF480610091C3F30B03103200F15801A2
:102930002046FFF7CAF90321A4F59160FEF760FD78
:1029400002B010BD98310020503900202DE9F04729
:1029500082B080460C30FEF713FF034618B11846CC
:1029600002B0BDE8F087D8F82C301B0B03F1410909
:10297000D8F810704024104E4FF48055DFF83CA07A
:102980002A46FF21304602F066FC009500232246CD
:1029900031465046FFF799F9D8F820302A4631469B
:1029A0003846984707F5805703460028D7D10134A9
:1029B000A145E5D1D3E700BF902100205039002088
:1029C0002DE9F04383B00746C668360B41364024F4
:1029D0000E4D4FF480594FF0000821462846FFF76E
:1029E00020F8A4F14001C9B23869CDF800904346FF
:1029F000224600EB01312846FFF7CEF80134A6420B
:102A0000EBD1002003B0BDE8F08300BF50390020B7
:102A100008B572B6FFF7E6FA62B608BD08B5024916
:102A2000FEF7CAFC08BD00BF840F002008B50249AC
:102A3000FEF7C2FC08BD00BFAC0F002010B5144C5F
:102A40002046FFF7F3FF04F14C02E263E261114A12
:102A500022642262104A62646262104AA262104AD0
:102A6000A264104AC4F880240F4AC4F87C240F4A98
:102A7000C4F870240E4AC4F874240E4AC4F87824AA
:102A80002046FFF72FFF00212046FEF7B9FC10BDBE
:102A9000C8340020B5270000112A000021170000CB
:102AA000952B00002D2A00001D2A0000C1290000DE
:102AB0004D290000352B00002DE9F04F83B04FEA7F
:102AC000113808F1010808EB103859B30C46060B11
:102AD0004FF6FF75154F4FF4805ADFF85490A34618
:102AE000B4F5805F28BF4FF4805B5246FF21384623
:102AF00002F0B1FBCDF800B000233246394648461B
:102B0000FFF7E3F85A4639462846FEF7E9FB054643
:102B10000136B04502D9B4F58054E0D1284603B05F
:102B2000BDE8F08F4FF6FF75F8E700BF9021002059
:102B30005039002010B582B0154B93F8C5C093F8FA
:102B4000C64093F8C71093F8D00093F8D12093F8BB
:102B5000C4308DF800308DF801C08DF802408DF83A
:102B6000031000998DF800008DF80120BDF8004099
:102B7000B1F5403F28BF4FF440314FF48030FFF7AC
:102B80009BFFA04214BF0020012002B010BD00BF77
:102B90000004000810B504890168B1F5403F28BF62
:102BA0004FF440314FF48020FFF786FFA04214BF5E
:102BB0000020012010BDFFFF70B590B005461B4CF2
:102BC0007E212046FEF76CFB23460DF102023034D5
:102BD0001E68D3F804E0D3F808C0D9681660C2F8BC
:102BE00004E0C2F808C0D16010331032A342EFD124
:102BF000D3F800C05C689968C2F800C05460916066
:102C00009B8993818DF80000C0F307238DF8013074
:102C1000402269460648FFF74BFA08B110B070BD74
:102C200007212846FEF7ECFBF8E700BFC2000008CA
:102C3000C0000008F0B591B000AF69464FF00063E6
:102C4000D3F818313B70C3F307227A70C3F30742FD
:102C5000BA70C3F30763FB703B68B3F1011F2BD05D
:102C600004460D4640220021384602F0F4FA164E82
:102C7000BC46B646BEE80F00ACE80F00BEE80F0049
:102C8000ACE80F00BEE80F00ACE80F009EE80F00B4
:102C90008CE80F004FF00113BB61D4F86C341B6A51
:102CA000402239463046984740B92046FFF784FF16
:102CB000AD464437BD46F0BD8D46FAE707212046B4
:102CC000FEF79EFBF1E700BF0001000870B5FFF7BB
:102CD000B5FEFFF7F7FCFFF735FC164E164D174C07
:102CE00096F83033062BFDD14FF47A71322002F082
:102CF00003F9FFF7AFF8AB685B6928689847A368EA
:102D0000DB68206898470E4B9A68526818689047AD
:102D1000D6F840334FF0E0220021116102F55062F5
:102D20009360BFF34F8F1A6882F308885B689847F7
:102D3000D6E700BF98310020605300001C5300000C
:102D400010530000022800D0704708B5024B5968A4
:102D5000024800F0EDFC08BD10530000803900204F
:102D600008B5FFF7B3FF002008BD0162826243622D
:102D70000020704710B50446836800229A704368AB
:102D800093F90230580903F01F03012202FA03F3FA
:102D90002B49203041F82030BFF34F8FBFF36F8FA6
:102DA000636893F90130580903F01F0302FA03F333
:102DB000203041F82030BFF34F8FBFF36F8F63682F
:102DC00093F90430580903F01F0302FA03F320308B
:102DD00041F82030BFF34F8FBFF36F8F636893F9D3
:102DE0000330580903F01F0302FA03F3203041F8BF
:102DF0002030BFF34F8FBFF36F8FEFF3108182F35B
:102E00001088104A5068636893F800C04FF0004380
:102E100023FA0CF303435360536881F3108863680B
:102E20005B691BB19A68126A1868904763681B69EE
:102E30001BB19A68126A186890470020206010BD84
:102E400000E100E0004008404369C269934207D2B4
:102E5000C26832B18168D35CCB704369013343618E
:102E6000704783680022DA70F7E7FFFFF8B51D4668
:102E700083689B7813F0300F40F08A800446164632
:102E8000C561002343618361C160026143681A69BF
:102E9000CAB145611B695A681268A8B2D08100297D
:102EA00031D05A681268D0784FF0020C6CF383006E
:102EB000D0705A681268516059689A6852680968F7
:102EC00018689047F0B963685A6952B14EB1A5616C
:102ED000586983689F68ABB2324600210068B847E2
:102EE00080B9236903B363681A69BAB1A02242F0BA
:102EF0005002A1688B781343DBB28B7063681A6948
:102F0000A2B10020F8BD5A681168CA7822F00C02FC
:102F1000CA705A68126820495160CDE75B69002B7E
:102F20000CBF2022A022E2E7A022E2E75A690AB100
:102F30000020E7E722696AB393F901305A0903F0E8
:102F40001F030121994002F12003144A42F8231083
:102F5000BFF34F8FBFF36F8F2046FFF775FF636896
:102F60005B7A012B0DD0636893F90130590903F0A6
:102F70001F03012202FA03F3084A42F8213000201D
:102F8000C0E7E369012BEED92046FFF75DFFEAE7D2
:102F90000820B7E70020B5E7B03A002000E100E0E4
:102FA00008B513460A460021FFF760FF08BD08B5C3
:102FB00013460022FFF75AFF08BD08B5FFF756FF7A
:102FC00008BD10B584B004468C46436AC3B193E88B
:102FD00007000DF1100E0EE90700626812781A6002
:102FE00083F804C0A26A9A60226A18469047636A0E
:102FF00023B104AA12E9070083E8070004B010BD5A
:1030000001ABEAE72DE9F04F83B004460D460B789B
:1030100003F5800303F58C531B02836041608B69C9
:103020000362CB698362002343624B6993B15A68A0
:1030300012684FF4002111605A68116882680532E5
:103040004A609A68126859681868904706460028CE
:1030500040F032812B6993B15A6812684FF00061D9
:1030600011605A681168A26803328A609A6812680F
:103070005968186890470646002840F02181D4F826
:103080000490D9F82060777807F0030747F08007AD
:10309000B17896F90230002BB5BF4FF0040C4FF019
:1030A000000C0B46FF23009399F80930012B00F028
:1030B0000F810022019299F80A30012B00F00C8157
:1030C00099F80B30012B14BF42F0800242F0C0028D
:1030D00099F80D30002B0CBF4FF0EA0E4FF0E20EC6
:1030E000EFF3108A012383F310887F48D0F804801F
:1030F00099F800B04FF0004929FA0BF928EA0908BD
:10310000C0F8048040688AF310880020A1688870A5
:10311000D4F8088098F804904FF0840988F8049057
:103120004FF47848A168A1F81480FFB2A1680F702D
:103130009DF80470A1688F705FFA8EFEA16881F817
:1031400006E03678A1684E70A6689DF80010B1744C
:10315000A1685FFA8CFC81F807C0A168D2B24A73FB
:10316000A2681072A2685072A2689072A268D072AF
:10317000A2685083A2684021D174A268022111770D
:1031800095F9012069790901C9B2584EB71887F835
:103190000013574F47F82240564902F1C00C51F82E
:1031A0002CE060F3104E41F82CE051F82CC0BFF336
:1031B0005F8F02F01F0C03FA0CFC5209920002F11F
:1031C000604202F56142C2F880C1C2F800C095F9C0
:1031D000022095F806C04FEA0C1C5FFA8CFC06EB47
:1031E000020E8EF800C347F8224002F1C00C51F8DD
:1031F0002CE060F3104E41F82CE051F82CC0BFF3E6
:103200005F8F02F01F0C03FA0CFC5209920002F1CE
:10321000604202F56142C2F880C1C2F800C095F96F
:10322000032095F807C04FEA0C1C5FFA8CFC06EBF4
:10323000020E8EF800C347F8224002F1C00C51F88C
:103240002CE060F3104E41F82CE051F82CC0BFF395
:103250005F8F02F01F0C03FA0CFC5209920002F17E
:10326000604202F56142C2F880C1C2F800C095F91F
:1032700004202D7A2D01EDB2164486F8005347F84C
:10328000224002F1C00551F8256060F3104641F874
:10329000256051F82510BFF35F8F02F01F018B40AE
:1032A0005209920002F1604202F56142C2F8803197
:1032B0001360114B23600646304603B0BDE8F08F23
:1032C0006B69002BF8D09A68126A18689047F3E788
:1032D000052202230193EEE699F80B30002B7FF4D0
:1032E000F7AE42F04002F3E60040084000E100E0A3
:1032F000083B0020006000405349435310B5EFF3F2
:103300000383103B5BB2104A03F1C00152F8210065
:1033100020F4803042F8210052F821200B4A52F864
:1033200023402046FFF790FD6269E3699A4200D08E
:1033300010BD2369002BFBD1A268937803F07B03B7
:1033400043F004039370F3E700600040083B002063
:1033500010B5EFF30383103B5BB2144A03F1C001D5
:1033600052F8210020F4803042F8210052F8212048
:103370000F4A52F823402046FFF766FDA369E26931
:10338000934205D2A1682269581CA0614979D154A1
:10339000A269E3699A4200D010BDA268937803F055
:1033A0003B0343F004039370F6E700BF0060004066
:1033B000083B002010B5EFF30383103B5CB20B4BCE
:1033C00053F824008268937803F00303937001217B
:1033D000FFF7F7FD064A04F1C00352F8231021F469
:1033E000803142F8231052F8233010BD083B0020F2
:1033F0000060004010B5EFF30383103B5CB20D4B4F
:1034000053F824008268937803F003039370836871
:103410001A7984221A710421FFF7D3FD064A04F1B8
:10342000C00352F8231021F4803142F8231052F8DF
:10343000233010BD083B0020006000400346002000
:10344000186070470B0A1B0153FA81F1034B53F8C4
:103450002130C3F340031370002070470008084078
:10346000090A490101F1804101F500214B681380EF
:1034700000207047090A490101F1804101F500214E
:1034800023EA02001A4042EA00428A6000207047A4
:10349000CBB20120984080B262B9024600200B0AEC
:1034A0005B0103F1804303F5002340EA024098608A
:1034B000002070470022F2E710B4090A490101F127
:1034C000804101F500210C6802EA0300204362EA12
:1034D000030202400A6000205DF8044B7047090AAD
:1034E000490101F1804101F500214B68C3F30F430D
:1034F0001380002070470B0A5B0103F1804303F542
:1035000000235868C9B201238B4099B203EA1043E3
:103510008B4214BF00230123137000207047090A57
:10352000490101F1804101F5002123EA02001A401E
:1035300042EA0042CA60002070470B0A5B0103F1B7
:10354000804303F50023C8B201218140D868012AD5
:1035500007BF20EA01400143884340EA0141D960A6
:103560000020704710B411F4803F0ED0030A0C4ABB
:103570001B0153FA80F352F8234024F4803442F8BC
:10358000234021F4803442F82340030A1B0153FAFC
:1035900080F0034B43F820105DF8044B704700BFE8
:1035A00000080840038863B12DE9F04F83B0074657
:1035B0004FF00008DFF8ECA04FF00109DFF8E8B0A9
:1035C00066E070479AF8BB2409FA04F3D9B2019176
:1035D000134230D004F120031BF81330DB0937D03D
:1035E0000134032C4FD07B68991935F8022B898858
:1035F0009142F5D19B5903F0B853B3F1807FE1D0EC
:103600009AF8BB2409FA04F3D9B2019113422CD1E0
:1036100004F120031BF81330DB09E1D004F1200290
:103620001BF8123023F080030BF812304946C820F3
:1036300001F062FCD4E7484601F052FD9AF8BB3431
:10364000019A13438AF8BB34484601F017FDC1E7DD
:1036500004F120021BF8123043F080030BF8123003
:103660004946C82001F048FCBAE7484601F038FD59
:103670009AF8BB34019A23EA02038AF8BB3448461D
:1036800001F0FCFCC4E708F101083B88434504D97C
:103690004FEAC806024D0024A5E703B0BDE8F08F4D
:1036A000DC55000000E001400030084038B5054618
:1036B000FFF778FFEFF31081012383F310881A4B93
:1036C0001B6823B9194B0022DA704022DA70164ABF
:1036D00013680133136081F310882B886BB10024C9
:1036E0006B6803EBC40253F834109088FFF73AFF7D
:1036F00001342A88A3B29A42F2D8EFF31083012250
:1037000082F31088084A12681AB107490A68013A18
:103710000A60054A126822B9044A0021D17080214A
:10372000D17083F3108838BD043B0020000D0840A1
:1037300008B5034B03600846FFF7B8FF002008BD3B
:1037400054524F5008B50846FFF7B0FF002008BD9F
:1037500070B586B00C461546ADF8081001920126EA
:10376000ADF80C6001AB049303A8FFF71BFFEFF368
:10377000108286F31088144B1B6823B9134B002169
:10378000D9704021D970104E33680133336082F311
:10379000108829462046FFF7E5FEEFF3108301224B
:1037A00082F31088326812B13268013A3260064AF8
:1037B000126822B9054A0021D1708021D17083F3AB
:1037C0001088002006B070BD043B0020000D0840AA
:1037D000054BB3F8843003F08103003B18BF01238D
:1037E0000B700020704700BF00E07F40062070474C
:1037F0000620704706207047062070470B46064A91
:1038000092E8030083E80300044A083392E80300C7
:1038100083E80300002070477C56000064560000D7
:1038200000230360436893F91130002B0DDB5A0924
:1038300003F01F030121994002F12003104A42F8CE
:103840002310BFF34F8FBFF36F8F0E4B00221A76FA
:10385000436893F9133093420DDB5A0903F01F03B9
:103860000121994002F12003054A42F82310BFF3D9
:103870004F8FBFF36F8F0020024B1875704700BF4A
:1038800000E100E000E07F400164826443640020C6
:1038900070470620704706207047062070470620B4
:1038A0007047FFFF10B4002380F83C30354C216A8C
:1038B000354B1B68C1F3026203FA02F2C1F30271D5
:1038C000CA40216AC1F302618B40CB40012184F8D8
:1038D00016142E498A4252D903F5742303F23F236A
:1038E0002B49A1FB03439B0C02F5742202F23F22F9
:1038F000A1FB0212920C02F5F0522649A1F8E42035
:1039000043F6B85103FB01F1234AA2FB01418908A8
:10391000816040F6D86103FB01F1A2FB01418908F7
:10392000C1605900A2FB014189080161542103FBD8
:1039300001F1A2FB0141890841614FF4FA2103FB27
:1039400001F1A2FB01418908816144F2506103FB4E
:1039500001F1A2FB014189084162104903FB01F119
:10396000A2FB0141890801620D4901FB03F3A2FB9F
:1039700003239B08C36100205DF8044B70474FF49C
:10398000FB70F9E700E00140903C0020FF083D009B
:1039900083DE1B4300E07F40ABAAAAAA80DE0F00B3
:1039A000A0F7030008B5FFF77DFF08BD10B582B092
:1039B00004460A46436CA3B193E803000DF1080CDA
:1039C0000CE903001A70A26C5A60226C18469047EA
:1039D000636C23B102AA12E9030083E8030002B07A
:1039E00010BD6B46EEE7FFFF2DE9F0410446416054
:1039F0000B785BB9314B00221A761A752046FFF717
:103A000051FF08B92E4B2360BDE8F0814B68036479
:103A1000CB68836400264664DFF8A0C001228CF8DE
:103A2000182091F91130087C0001C0B2254DEF1823
:103A300087F80003244F47F82340244803F1C00EC1
:103A400050F82E8066F3104840F82E8050F82EE093
:103A5000BFF35F8F03F01F0E02FA0EFE5B099B009F
:103A600003F1604303F56143C3F880E1C3F800E06C
:103A700098238CF8143091F91330897C0901C9B26C
:103A80001D4485F8001347F8234003F1C00150F8A6
:103A9000215066F3104540F8215050F82110BFF333
:103AA0005F8F03F01F018A405B099B0003F16043B5
:103AB00003F56143C3F880211A609FE700E07F406F
:103AC0004E45504F00E100E0083B00200060004000
:103AD00010B483B04FF49643019343681A78BAB98F
:103AE0002C4B4AF68022A3F88420B3F884309BB292
:103AF000802B47D0274A019B002B45D0019B013BDF
:103B00000193B2F884309BB2802BF4D100203DE0C9
:103B100093F91130204A03F1C00152F8214024F4F6
:103B2000803442F8214052F82110BFF35F8F03F038
:103B30001F04012101FA04F45B099B0003F16043B7
:103B400003F56143C3F880411C60436893F9133067
:103B500003F1C00052F8204024F4803442F82040A1
:103B600052F82020BFF35F8F03F01F0201FA02F228
:103B70005B099B0003F1604303F56143C3F88021B7
:103B80001A60ADE7002001E04FF4FA7003B05DF871
:103B9000044B704700E07F400060004008B501F032
:103BA0009BFB08BDF8B507460C4615461E46B1F10D
:103BB000006F12D2002380F83C303370002A53D0BB
:103BC0008A182178FF2904D101349442F9D10020C8
:103BD00002E0012333700020F8BDFFF779FF0028D1
:103BE000FAD1224B002283F8D0201C636A1E2244A3
:103BF0005A63A3F5F03371221A70D0221A707B68D1
:103C00001B784BBBAD087A6905FB0222174BD3F832
:103C1000803013F4004F0AD122B31449013AD1F88D
:103C2000803013F4004F02D1002AF7D114204FF452
:103C3000FC72002101F058FB04460C4B93F8D43081
:103C4000DBB2012B14BF00230123337001F050FBC2
:103C5000002C18BF2046BFE7032387F83C3002231F
:103C60003370B9E71420E2E71046B5E700E07F4083
:103C70002DE9F84304465B08836301634263002334
:103C800080F83C30B2F1006F03D201F021FBBDE8B7
:103C9000F883FFF71DFF0028F9D163681B78F3B1A3
:103CA000012384F83C30074604264FF018094FF4EE
:103CB00080583A463146204601F01EFB63681B7867
:103CC000002BE4D14A46414601F00EFB0546A36BAA
:103CD0003BB10028EDD001F00BFB2846D7E7E768A1
:103CE000E2E701F005FB002D18BF2846CFE7FFFFF4
:103CF0002DE9F8430446002380F83C30B1F1006F11
:103D00000AD2B1F5803F34BF6FF30C016FF30E019F
:103D100001F0F6FABDE8F88321F03F010163826308
:103D2000FFF7D6FE064660BB63681B780BB3022321
:103D300084F83C30144B0122A3F8E02040274FF0D8
:103D400019094FF4005832463946204601F0DCFA92
:103D500063681B78002BDDD14A46414601F0C4FA66
:103D60000546A36B3BB10028EDD001F0C1FA28460F
:103D7000D0E7666ADEE701F0BBFA002D18BF2846DF
:103D8000C8E74FF4FA70C5E700E07F4008B501F0DE
:103D9000A7FA08BD70B5EFF30383103B5CB2174B75
:103DA00053F82450164A137CD2F8802013F0080FE1
:103DB0000CD1D9B211F0800F1CD111F0100F1BD013
:103DC00012F4405F0CBF0626072600E004262846B2
:103DD00001F082FA0B4A04F1C00352F8231021F4D7
:103DE000803142F8231052F8233031462846FFF73D
:103DF000DDFD70BD0526EAE70726E8E7083B002061
:103E000000E07F400060004038B5EFF30383103BD3
:103E10005BB21E4A52F823401D4AC03352F82310A9
:103E200021F4803142F8231052F8233094F83C50AA
:103E3000012D13D0022D1FD0164B93F8D430DBB2D6
:103E4000012B14BF0225032501F052FA002384F848
:103E50003C3029462046FFF7A9FD38BDA36B002B57
:103E6000F2D000220421204601F046FA0028F4D0C6
:103E7000204601F031FAF0E7A36B0BB90025E3E728
:103E800000224021204601F03FFAE6E7083B0020EF
:103E90000060004000E07F40062070470620704729
:103EA00090F90420114B53F8223000220A604A6036
:103EB000DA783F2A11D94FF480728A60DA89D2B257
:103EC000CA60DA7802F0C002802A0CD14FF4803246
:103ED0000A609B899BB24B6005E04FF480328A6098
:103EE000DB899BB2CB600020704700BF0000002040
:103EF000062070470620704790F904300449C0330B
:103F000051F8232042F0807241F8232000207047AE
:103F1000006000400B460AE0DA89D2B202EB0222CE
:103F200092B2DA8110339CF802203F2A04D99C46D1
:103F3000DA783F2AF6D9EFE7054B08221A7490F990
:103F40000400044A42F8201018221A74704700BF77
:103F50000054004000000020F8B505460C461A4BFE
:103F60001B7893B1636893F90030002B27DB174A65
:103F700052F823202ABB2B71216811B12846FFF784
:103F8000C9FF134B2B600020F8BD01260E4B1E709D
:103F9000EFF3108186F310880E4B1A6822F480022A
:103FA0001A601B6881F31088084F4FF4C07200211B
:103FB000384601F050F9084B5F611E73D2E70B20C1
:103FC000E2E70820E0E700BFB13A0020000000204F
:103FD000004354440040084000540040034690F918
:103FE0000410074801F1C00C50F82C2022F0807218
:103FF00040F82C200020034A42F821001860704746
:10400000006000400000002090F904300449C033F3
:1040100051F8232022F0807241F8232000207047BD
:104020000060004030B482B00191009290F9042009
:104030001D4951F822501D4CC03254F8221021F075
:10404000807144F8221090F9041041F40041A4F565
:104050004064E28992B29142FBD0154A0821117462
:10406000019A0AB1019A6A60009A0AB1009AAA609C
:10407000EA7802F0C001802913D03F2A98BFEB8173
:104080000B4B18221A7490F904300849C03351F8C8
:10409000232042F0807241F82320002002B030BC7F
:1040A0007047AB81ECE700BF0000002000600040DB
:1040B0000054004038B5054690F904300F48C0332D
:1040C00050F8232022F0807240F8232095F9042034
:1040D00042F400420A4CE3899BB29A42FBD0284644
:1040E000FFF718FF95F904300449C03351F8232035
:1040F00042F0807241F82320002038BD006000406B
:104100000054004030B4024600209060136893F9D8
:1041100015304FEA531C03F01F01012303FA01F18C
:10412000204C0CF1200C44F82C10BFF34F8FBFF340
:104130006F8F116891F916104FEA511C01F01F01A1
:1041400003FA01F10CF1200C44F82C10BFF34F8F4F
:10415000BFF36F8F116891F917104FEA511C01F0EE
:104160001F0103FA01F10CF1200C44F82C10BFF3ED
:104170004F8FBFF36F8F516881F84C08C1F82C0442
:10418000EFF3108483F3108807494D6812681268B2
:10419000C2F1020293402B434B604B6884F31088BA
:1041A00030BC704700E100E0004008400620704746
:1041B0004268B2F842389BB20B6092F84E384B73AB
:1041C00092F84F380B7392F8503803F07F030B616D
:1041D00083F07F0382F8503800207047C16142624B
:1041E000036200207047FFFF037B43B1022B04D022
:1041F0000023106820F0604006E0137953B913687B
:10420000074800EA834000235279034343EA82735C
:104210000B607047012B14BF00230123DB07E8E785
:104220000000FC1F2DE9F0414668731893F8203810
:10423000DB0928D10D46144601F120084FEA081782
:1042400006EB0818036841461869FFF7CDFFA2790D
:10425000B8F8043062F30303A8F80430A179B81D5C
:10426000304404F10C0239B10346441812F8010B32
:1042700003F8010BA342F9D12E44802386F820389D
:104280000020BDE8F0814EF66320FAE770B58AB0F1
:1042900005468C46066A6EB3EE4634460FCCAEE851
:1042A0000F000FCCAEE80F0094E803008EE8030087
:1042B000B646BCE80F00AEE80F00BCE80F00AEE861
:1042C0000F009CE803008EE80300EB693046984736
:1042D0002B6A6BB19C46EE46BEE80F00ACE80F00BF
:1042E000BEE80F00ACE80F009EE803008CE8030076
:1042F0000AB070BD0E46E8E74268B2F8403823F4D1
:104300008063A2F84038B2F8403861F30923A2F87C
:1043100040380902B2F8423803F4E0638B42F9D125
:104320007047F8B504460D464768437B93420AD16F
:10433000237BAB4206D0052D0FD029462046FFF740
:10434000DBFF2573F8BD16460221FFF7D5FF87F87E
:104350005868667302232373EAE702212046FFF7B9
:10436000CBFFB7F8403843F48063A7F84038B7F87C
:10437000423813F4806FFAD0E3E708B5FFF7D1FFB6
:10438000002008BD2DE9F84F81468A460D690F6867
:1043900007F58027A8373F034760EFF31086012118
:1043A00081F310888E4A5468DAF80030C3F10203B2
:1043B00001FA03F324EA03035360536886F3108879
:1043C000C0F800A0DAF80830C361DAF80C304362B4
:1043D000002404622B7803762246FFF7A2FF2A7B93
:1043E0002B7DDB0043EA420343F4E073A7F8403837
:1043F000DAF804205368591E9368013B1B0243EA14
:104400000173D168013943EA013399F818100B435D
:1044100011680139734A02EA01421343C7F844386C
:10442000224602214846FFF77CFF802387F8503858
:1044300007F500764FF400722146304600F00BFF7E
:10444000A0464FF0400B07E043463A1982F8203867
:1044500001341036202C0ED0AA6802EBC4029379E6
:10446000002BF1D12969A142EFD931462846FFF747
:10447000BBFE5B46E9E72B69032B21D900231846D5
:104480006FF060440F26DFF870C10BE003F5807E0B
:1044900047F82E2006FA01F1084301332A69B3EBED
:1044A000920F0ED299006A6852F82320A242F4D2E9
:1044B00095F80CE0BEF1000FE8D10CEA8242E5E786
:1044C0000020C043C7F82804002211464846FFF7E1
:1044D00028FFB7F8403843F02003A7F84038B7F872
:1044E000403813F0200FFAD19AF915309AF81420B9
:1044F0001201D2B23C48C11881F800233B4C44F869
:1045000023903B4A03F1C00152F8215025F4803535
:1045100042F8215052F82110BFF35F8F03F01F05BE
:10452000012101FA05F55B099B0003F1604303F5E6
:104530006143C3F880511D609AF916309AF81450FF
:104540002D01EDB2C61886F8005344F8239003F10C
:10455000C00552F8256026F4803642F8256052F8EE
:104560002550BFF35F8F03F01F0501FA05F55B09C6
:104570009B0003F1604303F56143C3F880511D6064
:104580009AF917309AF814502D01EDB2184480F8BA
:10459000005344F8239003F1C00052F8204024F463
:1045A000803442F8204052F82020BFF35F8F03F0A0
:1045B0001F0291405B099B0003F1604303F56143D7
:1045C000C3F8801119603E2387F84C384FF0FF3351
:1045D000C7F82C34074BC9F808300020BDE8F88F25
:1045E000004008400000FF0300E100E0083B00201D
:1045F000006000404E4143520000FC1F30B58BB0BC
:10460000EFF30383103B5BB22F4AC03352F8231001
:1046100021F4803142F8231052F82330EFF3038362
:10462000103B5BB2294A52F82350282200216846E9
:1046300000F011FE6C6894F84D38DBB2ADF8043030
:10464000002284F84D28B4F8422812F0100F39D017
:1046500043F02003ADF8043094F85328D2B202237B
:1046600084F8533894F8523803F01F0384F8532821
:10467000E11891F8202822F0040281F820282A6805
:10468000126800926A6A0492039369462846FFF70B
:10469000FDFDB4F8423813F0100F11D02B681A69E1
:1046A000127D6AB193F91530002B09DB5A0903F02A
:1046B0001F030121994002F14003054A42F82310EB
:1046C0000BB030BD0023DAE700600040083B00205B
:1046D00000E100E02DE9F0418AB0EFF30383103BE5
:1046E0005BB2404AC03352F8231021F4803142F8C3
:1046F000231052F82330EFF30384103C04F0FF063C
:1047000064B2394B53F824004FF48063ADF80430A1
:10471000456895F85338DBB2002285F8532895F8A0
:10472000527807F01F0785F85338D0F8048007F156
:1047300020031B0158F80320C2F380718DF8191073
:1047400058F8031003681B691B7B43EAD17303F01D
:1047500001038DF81830002B41D1C2F38A42059233
:1047600007F1200308EB03139B8803F00F039C461B
:10477000082B28BF4FF0080C8DF81AC06BB10DF153
:104780001F02002308EB071E0EEB030191F806122F
:1047900002F8011F01336345F6D1B844442388F879
:1047A000203800230793039703681B680093436A2C
:1047B00004936946FFF76AFDB5F8423813F0010F1C
:1047C0000AD0002C08DB640906F01F060123B34061
:1047D0004034064A42F824300AB0BDE8F08122F0A5
:1047E0006042BCE700600040083B002000E100E0C0
:1047F00030B58BB0EFF30383103B5BB2244AC03378
:1048000052F8231021F4803142F8231052F823305B
:10481000EFF30383103B5BB21E4A52F82350002291
:10482000ADF804206C6894F85318C9B2012384F8D9
:10483000533894F8523803F01F0384F85318E118E2
:1048400081F8202881F8202803934FF40063ADF805
:1048500004302B681B6800936B6A049369462846F2
:10486000FFF714FDB4F8423813F0020F0ED02B6896
:1048700093F91730002B09DB5A0903F01F030121BC
:10488000994002F14003044A42F823100BB030BDB6
:1048900000600040083B002000E100E0037B43B1E2
:1048A00083680269013A43F80C2BF1221A70002048
:1048B000704783680269013A92B223F8082BF4E743
:1048C000037B2BB183680C33F0221A7000207047F1
:1048D00083680833F8E70620704706207047416177
:1048E000C261836100207047037B5BB182680C3238
:1048F000117801F001011378C3F340039942FAD112
:104900000020704782680832F2E710B50446FFF7CE
:10491000EBFF28B9237B23B1A3680C33F0221A7074
:1049200010BDA3680833F9E710B50446FFF7DCFFB4
:1049300028B9237B23B1A2682369013B136010BD12
:10494000A2682369013B9BB21380F8E738B504469F
:104950000D46FFF7C9FF60B9237B5BB1A3680C3339
:104960001B78C3F340032B71237B33B1A3681B680F
:104970002B6038BDA3680833F2E7A3681B889BB29D
:10498000F6E7FFFF10B50446FFF7AEFF78B9237BCB
:1049900073B1A3680C33F4221A7000221A71636891
:1049A00093F9123013F1210F05D10023236010BDBC
:1049B000A3680833EFE793420DDB5A0903F01F03A6
:1049C0000121994002F12003064A42F82310BFF367
:1049D0004F8FBFF36F8F636893F91220024B43F838
:1049E0002240E2E700E100E0083B0020016143686B
:1049F0001A7C064B43F822100139037B13B18368FC
:104A000019607047836889B219807047B43A0020F2
:104A100070B504460D464160002303730B7C1B02F6
:104A200003F1804303F568238360EFF310800122D4
:104A300082F310880A7C032A53D942490E69C2F1D5
:104A4000130101228A40D2433F4952E0A268083252
:104A500067E050291CD0297A16710026967103430D
:104A6000DBB25370C9B2917069682046FFF7BEFF90
:104A700095F91230B3420DDA6B696361AB69E3619A
:104A80000020A061314B236070BD00210846E3E7A0
:104A90000021E1E76A7C1201D2B203F1604101F525
:104AA000614181F800232A4A42F82340294A03F150
:104AB000C00152F8210020F4803042F8210052F861
:104AC0002120BFF35F8F03F01F0101228A405B09A1
:104AD0009B0003F1604303F56143C3F880211A6032
:104AE000CAE71849CE68C2F1030101228A40D243C5
:104AF000194932400A602E7C134A1749032E98BF89
:104B00000A46126880F3108800221A721A7A12F08C
:104B1000020FFBD100229A72237B002B96D0A26851
:104B20000C32EB69197808461E79DB7803F007032D
:104B300000298ED1287A0028A7D080F00200000139
:104B40008AE700BF00400840104008405447410039
:104B5000083B0020006000400C40084070B504464F
:104B6000FFF7C2FE064648B9237B4BB1A5680C355A
:104B700063681B78012B06D0F1232B70304670BD83
:104B8000A5680835F4E721692046FFF72FFFF3E712
:104B900070B504460D46FFF7A7FE064608B130463D
:104BA00070BD29462046FFF721FFF8E7B1B100F1BB
:104BB0000C035A78C2F302121046032A11D80D4B87
:104BC000196AC1F3026C0C4B1B6803FA0CF3C1F3B6
:104BD0000221CB4052B182F0020007E000F108034D
:104BE000E7E7987800F007004FF4004323FA00F05D
:104BF000704700BF00E00140903C0020F8B504463B
:104C00000D46FFF771FE0746F0B92369AB60636894
:104C1000DA691278502A0FD11B7C013BDBB20B4AB8
:104C200052F823606EB1A068217BA0F58070FFF779
:104C3000BDFFB0FBF6F604E0217BA068FFF7B6FFEE
:104C400006466E6000232B703846F8BDB43A00204B
:104C500070B584B0EFF30383103B5BB2224A03F1DB
:104C6000C00152F8210020F4803042F8210052F8AF
:104C700021201E4A52F82340237B4BB3A5680C35F4
:104C80002B78DBB262681278012A24D06269D2B133
:104C9000A66936B396E807000DF1100C0CE9070081
:104CA00013F0200F1CBF00233371E3693360636985
:104CB00030469847A36923B104AA12E9070083E8A4
:104CC00007002B78DBB203F00F032B7004B070BD2C
:104CD000A5680835D4E7F4222A7003F0F0032B709E
:104CE000D4E701AEDCE700BF00600040083B0020D5
:104CF000064B93F826101A6AC2F30262044B53F86B
:104D00002130D340034A1360704700BF00E00140E8
:104D1000DC100020903C00207047FFFF10B53F4B97
:104D20004AF20352A3F8FE23A3F500530122A3F88D
:104D300004211A46B2F804319BB2002BFAD1384B49
:104D40000122A3F80021374B374A1A60374A5A60CC
:104D50004FF400429A603649D9601A61354A5A6167
:104D6000FFF7C6FF2D4B202283F81324092283F876
:104D7000A22093F880342BB9284B93F8813413F098
:104D8000030F46D0254B93F88034A3B3234B002266
:104D900083F8812483F88024204B002283F832207A
:104DA0001A4692F83C3013F0080FFAD01B4B43F22E
:104DB00002121A85002283F82A201A4692F83C3003
:104DC00013F0200FFAD0164B012283F81C21134C4C
:104DD000194B2362052384F82630FFF789FF174B10
:104DE000F1221A7300221A72F0221A734FF425432B
:104DF000A4F8FE3310BD0121084B83F88014C820AD
:104E000000F07AF8054A92F88034DBB2012BFAD12F
:104E1000BCE74FF47A70FFF77FFFBDE700E0014089
:104E200000C00140DC100020002D310100127A008A
:104E3000001BB70000E1F505100101100020004043
:104E400038B5284C002584F828500121C82000F0EE
:104E500053F884F82450224692F82430002BFBD1DA
:104E6000204A92F8243043F0020382F8243092F86A
:104E7000243013F0020FFAD11A4B002283F82220BB
:104E80001A4692F82230002BFBD1164A92F8403095
:104E900023F0800382F8403092F84030DB09FBD1E8
:104EA000104A92F8423023F0800382F8423092F8A0
:104EB0004230DB09FBD10B4A92F8443023F08003E7
:104EC00082F8443092F84430DB09FBD1012000F035
:104ED00007F9054B002283F8BB24012000F0CEF82F
:104EE00038BD00BF0030084000E001407047A0F12D
:104EF00001000028FBD1704708B500FB01F1204BF1
:104F00001B682048B0FBF3F0CA0E4B015B1A62F13C
:104F10000002920042EA93729B005B1842F1000289
:104F2000D20042EA5372DB004FF0FF3C9C454FF049
:104F3000000C7CEB020C06D3B3FBF0F3980808B12D
:104F4000FFF7D5FF08BD8000B1FBF0F1CA0E4B01A1
:104F50005B1A62F10002920042EA93729B005B18B6
:104F600042F10002D20042EA5372D8004FF0FF3300
:104F700083424FF000039341E1D24FF0FF30DFE76F
:104F8000903C002000CA9A3B70B50E4BB3F820212C
:104F9000B3F84051ADB2154000240B4E02E001348D
:104FA0000E2C0BD025FA04F313F0010FF7D056F8AE
:104FB0002430002BF3D0E0B29847F0E7014BA3F880
:104FC000305170BD00600040CC3A002030B585B053
:104FD000032000F085F8254B6FF0FF029A644FF034
:104FE000FF33019302930393214C04F1C005234640
:104FF00000224FF0010E02E00132AB4212D033F832
:10500000021F0029F8D0510904A800EB810102F029
:105010001F0C0EFA0CFC51F80C0C20EA0C0041F8A5
:105020000C0CE9E7019A114B1A671249C1F880226A
:10503000029959674FF0E022C2F8841303999967E7
:10504000C2F88813032000F019F800230A4802E090
:105050000133AC4208D034F8022F002AF8D003F113
:10506000C00140F82120F3E705B030BD00800040CA
:105070000255000000E100E000600040EFF3108204
:10508000012383F31088134B33F810309BB233B1F4
:10509000104931F81030013B9BB221F810300D4B14
:1050A00033F810309BB293B910B40B49B1F8FE330A
:1050B0009BB20A4C34F8100043F4254323EA000362
:1050C000A1F8FE3382F310885DF8044B704782F339
:1050D00010887047883C002000E001402057000005
:1050E00010B4EFF31081012383F310880F4B33F8D2
:1050F00010309BB26BB90E4AB2F8FE339BB20D4C26
:1051000034F810C043EA0C0343F425439BB2A2F8E1
:10511000FE33064A32F8103001339BB222F81030C9
:1051200081F310885DF8044B704700BF883C002075
:1051300000E001402057000000BE704708B500F0B5
:1051400003F8FDF70DFEFEE770B52C4B4FF470022F
:10515000C3F888202A4C9C600020FDF7F3FDFFF780
:10516000DDFD0120FDF7EEFD2368A3F5806383F3E9
:105170000A882448244A121A002100F06CF82348B7
:10518000234A121A234900F059F8234B234A9B1A49
:10519000002B08DD9E101546002455F8043B984767
:1051A0000134A642F9DCFFF7A3FDFFF749FE032017
:1051B000FFF796FF1A4B4FF6FF721A825A829A82B5
:1051C000DA821A835A839A83DA830320FFF756FF21
:1051D0000320FFF785FF134B00245C609C60DC60BC
:1051E0001C610320FFF74AFF0220FDF7ABFDFFF72C
:1051F000EDFE2046FFF77AFE70BD00BF00ED00E037
:1052000000000000F8100020943C002080010020E5
:10521000DC10002054570000D8100020D4100020CB
:10522000000D084000000E4010F8012B11F8013B62
:10523000012A28BF9A42F7D0D01A70470A44431E69
:10524000914200D1704710B511F8014B914203F81B
:10525000014FF9D110BD02440346934200D170477B
:1052600003F8011BF9E7FFFF4275696C7420776949
:1052700074682052656E6573617320416476616E57
:1052800063656420466C657869626C6520536F665F
:105290007477617265205061636B61676520766524
:1052A0007273696F6E20352E382E3000352E382EF1
:1052B0003000000000000805F8B500BFF8BC08BCCD
:1052C0009E467047F8B500BFF8BC08BC9E467047C4
:1052D0005FF800F0310600205FF800F09D0200202A
:1052E0005FF800F0450700205FF800F09D04002003
:1052F0005FF800F0810100205FF800F089030020D2
:105300005FF800F0830600205FF800F0290300201A
:105310008039002080540000E455000088390020C6
:1053200028530000D0560000000000009410002018
:10533000E1220000000000004053000002000102D2
:1053400000000000B0390020D40F00200000000051
:105350001800000000000000000000000000000035
:10536000C83900206C5300001856000001000000EE
:10537000B12100000000000000000000020502064C
:10538000143A00208C530000EC560000000000008E
:1053900050C3000000000000A861000000030700E7
:1053A000851E000000000000AC530000000000015A
:1053B00000000001343A0020C0530000EC56000009
:1053C0000000000050C3000000000000A8610000C1
:1053D00001040800991E000000000000E0530000D6
:1053E0000000000100000001543A0020F4530000C6
:1053F000EC5600000000000050C300000000000058
:10540000A861000002050900AD1E000000000000B8
:10541000145400000000000100000001743A002054
:1054200028540000C4550000000A0B0C0D0C0C0C95
:105430000C000000010000005054000068540000FF
:10544000E51D0000000000004C540000020000FFB9
:10545000A03A00205C540000A4560000A4100020D4
:10546000645400000BFFFFFFA83A002074540000B2
:10547000A4560000B41000207C5400000AFFFFFF77
:105480000F0000008C540000000000000400000029
:1054900002000000040000000D00000004000000F5
:1054A0000E000000040000000F000000000C0104CA
:1054B00000010000000C010401010000000C0104C7
:1054C00002010000000001100301000000000100C3
:1054D00008010000050C00000C01000004000000A1
:1054E00001020000040000000602000000000100AC
:1054F000000300000400000002030000000001108F
:1055000002040000A100A400A500A200A300310035
:105510003000400043004600800181018201830188
:10552000000000000000000000000000000000007B
:10553000000000000000000000000000000000006B
:10554000000000000000000000000000000000005B
:10555000000000000000000000000000000000004B
:10556000000000000000000000000000000000003B
:10557000000000000000000000000000000000002B
:10558000000000000000000000000000000000001B
:10559000000000000000000000000000000000000B
:1055A00000000000000000000000000000000000FB
:1055B00000000000000000000000000000000000EB
:1055C0000000000005300000A12F0000AF2F0000F8
:1055D000BB2F00006B2D0000752D0000020403049A
:1055E0000404FFFF313700003D3400004537000060
:1055F00051370000F73400003B350000453400000F
:1056000091340000B9340000DF3400001F35000081
:105610006134000075340000E9390000713C00007D
:10562000F13C0000A53B0000FD37000021380000E0
:10563000D1370000F1370000F5370000ED370000EA
:105640009D3B0000A53900008D3D0000F9370000AA
:105650008938000093380000973800009B3800001C
:105660009F380000010000006C5600000000000898
:10567000FF1F0008400000000400000002000000BE
:105680008456000000000000FFFF00000020000022
:105690008000000000000100FFFF03000080000008
:1056A00080000000593F0000B54000002540000088
:1056B000F93E000009400000993E00009D3E0000B8
:1056C000A13E0000DD3F0000F13E0000F53E00007D
:1056D0008543000025420000AD4100000541000067
:1056E0007B430000B1410000DD410000114A000091
:1056F0005D4B00000B490000294900009D48000057
:10570000C1480000914B0000D7480000DB48000072
:10571000FD4B00004D490000DF48000085490000B6
:10572000010002000800100010000000000000004E
:10573000017A5200027C0E011B0C0D0010000000CB
:105740001800000000000000100000000000000031
:045750000000000055
:105754001A4BB3F884C01FFA8CFC4FF42A42A3F806
:105764008420B3F884309BB28BB14FF4964200206E
:105774001249002A08BF4FF4FA70013AB1F8843094
:105784009BB2002BF5D1BCF1010F02D07047002071
:10579400F9E70A4B4DF60112A3F84420084B012205
:1057A400A3F804211A46B2F804319BB2002BFAD1B3
:1057B400034B0122A3F80021E8E700BF00E07F408B
:1057C40000C0014082B04FF496430193104BB322C2
:1057D4001A7003F5F033D3F8803013F4004F0AD174
:1057E4000C4A019B8BB1019B013B0193D2F88030A1
:1057F40013F4004FF5D0074B1B7C13F0100F40F24D
:10580400F51008BF002002B070471420FBE700BF6A
:1058140000007E4000E07F4082B04FF49643019345
:10582400104B50221A7003F5F033D3F8803013F480
:10583400004F0AD10C4A019B8BB1019B013B0193A0
:10584400D2F8803013F4004FF5D0074B1B7C13F0D3
:10585400100F40F2F51008BF002002B0704714206A
:10586400FBE700BF00007E4000E07F4070B50446C7
:1058740043681A78F2B193F91130590903F01F0300
:10588400012202FA03F31A48203140F82130BFF311
:105894004F8FBFF36F8F636893F91330590903F087
:1058A4001F039A4001F1200340F82320BFF34F8FD8
:1058B400BFF36F8F0F4BB3F884309BB28BB1FFF7FC
:1058C40081FF0546FFF7A8FF064675B9FFF740FFBD
:1058D400002E14BF35460546002384F83C30284684
:1058E40070BD204600F050FAE9E7FFF731FFF3E717
:1058F40000E100E000E07F4010B4164B046B1C6331
:10590400A3F5F0334FF0200C83F800C04FF0D00C17
:1059140083F800C0036B0B440363836B013B836315
:1059240010468AB10B4BD3F8803013F4004F0ED1DC
:10593400084A0138D2F8803013F4004F03D100280C
:10594400F7D1142000E000205DF8044B70470020DC
:10595400FAE700BF00E07F4030B583B01446002A68
:105964005BD1436893F911305A0903F01F030125F1
:105974009D4002F120033A4A42F82350BFF34F8F6F
:10598400BFF36F8F426B374B1A63A3F5F033E822F2
:105994001A704FEA510EC1F347021A7001292BD92C
:1059A4004FF0000C304D2F49036B1B882B8003698B
:1059B4000193D1F8803013F4806F07D0019B5A1EF5
:1059C4000192002BF5D1142003B030BD036B0233D8
:1059D4000363436B02334363836B013B83630CF1C7
:1059E400010CF445E0D3204BD0221A7034BB06E0FE
:1059F4000020E9E70020E7E71B4BD0221A70436838
:105A040093F91130590903F01F03012202FA03F339
:105A1400134A42F821300020D6E7426B114B1A6337
:105A2400A3F5F033E8221A704FEA510EC1F347028E
:105A34001A700129B4D80C4BD0221A70094BD3F830
:105A4400803013F4004FD3D1064A013CD2F88030A1
:105A540013F4004FCED1002CF7D11420B4E700BFCB
:105A640000E100E000E07F4000007E4010B5034606
:105A74001446134A127C12F0100F0CD10020104A65
:105A8400D2F880200A4208BF0446A3B9ACB1FFF79C
:105A940099FE204610BD0A4AD2F8802012F4804FA5
:105AA40002D140F2F510EAE7054A107C0020107498
:105AB40040F2F510E3E71C46E9E72046EAE700BFB9
:105AC40000E07F4082B083690193164B1963A3F50C
:105AD400F0334021197008211970931E0E321248B8
