:020000021000EC
:10000000E0A50020953601009D34010091360100E5
:1000100091360100913601009136010091360100C0
:100020000000000000000000000000009136010008
:1000300091360100000000009136010071020100BC
:10004000C12A0100992B0100B52C0100992B010058
:10005000B52C0100651B0100651B01004D1301005B
:100060005112010011140100591401004D13010037
:10007000511201001114010059140100510901002D
:10008000DD090100FD0A0100DD0B0100252501004D
:10009000B12401000000000000000000000000008A
:1000A0000000000000000000000000000000000050
:1000B0000000000000000000000000000000000040
:1000C0000000000000000000000000000000000030
:1000D0000000000000000000000000000000000020
:1000E0000000000000000000000000000000000010
:1000F0000000000000000000000000000000000000
:1001000000000000000000000000000000000000EF
:1001100000000000000000000000000000000000DF
:1001200000000000000000000000000000000000CF
:1001300000000000000000000000000000000000BF
:1001400000000000000000000000000000000000AF
:10015000000000000000000000000000000000009F
:10016000000000000000000000000000000000008F
:10017000000000000000000000000000000000007F
:10018000000000000000000000000000000000006F
:10019000000000000000000000000000000000005F
:1001A000000000000000000000000000000000004F
:1001B000000000000000000000000000000000003F
:1001C0000348044B834202D0034B03B118477047E6
:1001D0006C2900206C29002000000000064B074914
:1001E000C91A891048BF0131491003D0044B0BB123
:1001F00001481847704700BF6C2900206C29002077
:100200000000000010B5064C237843B9FFF7D8FF73
:10021000044B13B10448AFF300800123237010BDD9
:10022000882900200000000050E4020008B5054BBA
:100230001BB105490548AFF30080BDE80840FFF752
:10024000CDBF00BF000000008C29002050E4020058
:1002500008B5012180680FF0A9FA08BD08B512F0B1
:10026000E1FA08BD014BD3E900017047A82900203D
:1002700010B4054CD4E90023501C43F10001C4E93B
:1002800000015DF8044B7047A829002010B502F06A
:10029000D9FF1C4B1B681C4AA2FB03239B09013B93
:1002A000B3F1807F0AD24FF0E0225361174BF02167
:1002B00083F823100023936107231361134B00225B
:1002C00083F823200BF0F8FE12F07AF8044698B178
:1002D00003200BF0E1FE18B122460D490BF0BBFDE7
:1002E00001200BF0D9FE18B122460A490BF0B3FDEC
:1002F000204612F0A0FAFBE7074A084903F00AFC7F
:1003000010BD00BF002D0020D34D621000ED00E0B5
:10031000510201005D020100749D0200989D0200DF
:1003200008B5FFF7B3FF002008BD4162C2628362D7
:100330000020704710B504460023036043685B69E2
:100340001BB19A68126A1868904763681B691BB1F1
:100350009A68126A18689047636893F90230002B14
:100360000DDB5A0903F01F030121994002F120031C
:10037000214A42F82310BFF34F8FBFF36F8F63689A
:1003800093F90130002B0DDB5A0903F01F03012103
:10039000994002F12003184A42F82310BFF34F8F0F
:1003A000BFF36F8F636893F90330590903F01F039C
:1003B000012202FA03F31048203140F82130BFF344
:1003C0004F8FBFF36F8F636893F90430590903F0BF
:1003D0001F039A4001F1200340F82320BFF34F8F01
:1003E000BFF36F8FA268137823F040031370A368E4
:1003F000DA780020D87010BD00E100E070B50E463C
:100400001D469DF810308168097811F0400F40F0CA
:10041000DB800446C6600261002141618161C561E3
:1004200080F820304168486900282BD0A5610F2B47
:100430007FD94B695B681B68D978022060F305118E
:10044000D97063685B695B681B689978022060F308
:100450008301997063685B695B681B68A9B2D98185
:1004600063685B695B681B689A60002A74D0636884
:100470005B6959689A68526809681868904703462A
:10048000002854D163681A69002A31D0656194F854
:1004900020200F2A6FD91B695B681B68DA7802215C
:1004A00061F30512DA7063681B695B681B68DA78B0
:1004B000022161F38302DA7063681B695B681B6861
:1004C000ADB2DD8163681B695B681B685E60002EEE
:1004D00064D0A268137823F02003137063681B694B
:1004E00059689A6852680968186890470346F0B9D5
:1004F000A068C27AD2B2038A9BB294F820100F2966
:100500005BD922F0400242F020020131890805390E
:1005100023F47063D2B2C272A26843EA01239BB291
:100520001382A268137843F0600313700023184607
:1005300070BD072B07D84B695B681968CB7823F02F
:100540003003CB707DE74B695B681B68D97801206D
:1005500060F30511D97074E763685B695B681A68BA
:10056000937823F00C03937063685B695B681B6886
:10057000164A9A607BE7072A07D81B695B681A68E6
:10058000D37823F03003D3708DE71B695B681B6859
:10059000DA78012161F30512DA7084E763681B6978
:1005A0005B681A68D37823F00C03D37063681B6907
:1005B0005B681B68064A5A608BE7072994BF42F0C4
:1005C000400222F06002A3E70823B0E7342B0020AA
:1005D000302B002000B583B0009313460A4600215B
:1005E000FFF70CFF03B05DF804FB00B583B0009388
:1005F00013460022FFF702FF03B05DF804FB10B5BD
:1006000082B09DF810400094FFF7F8FE02B010BDD4
:1006100010B584B004468C46836AC3B193E80700E2
:100620000DF1100E0EE90700626812781A6083F867
:1006300004C0E26A9A60626A18469047A36A23B1CE
:1006400004AA12E9070083E8070004B010BD01AB5B
:10065000EAE7FFFF2DE9F04F85B004460D460E692D
:100660000B781B02B44F1F4486B173681B684FF0B0
:1006700000621A6073681B689F60B3681B687168CA
:10068000306898478046002840F0D7806B69002B7F
:1006900000F02E815A6812684FF4002111605A68E8
:1006A000126857609A6812685968186890478046BF
:1006B000002800F01D81002E00F0BF80B3681B6A87
:1006C00030689847B9E0287808B946EAC11643F07F
:1006D000B003507823EAC013410141EA40010B43C3
:1006E0000193D3789078984026F0700E1B0115790D
:1006F000002D00F0A680022D0CBF30262026557953
:100700002DB1012D14BF4CF0010C4CF0030C92F8EC
:100710000680157A05F0030543EA850343EA0E03D4
:10072000002F40F0908043F46043517A0291917A17
:10073000039192F80BE0EFF3108A012585F31088FE
:100740007E4FD7F80490616891F800B0CBF1130B9D
:1007500005FA0BF529EA05057D607D688AF31088A6
:10076000A568EF780027EF70A5689DF80410297040
:10077000A168C0B24870A168F6B28E70A168D27943
:100780008A72A2689DF808101173A1689DF80C2068
:100790004A73A2685FFA8EFE82F80EE0A2685FFAE2
:1007A0008CFC82F80FC0A2689BB21382A36883F806
:1007B0002080A368102283F82120626892F9023019
:1007C000BB4247DA626892F90130002B69DA62684D
:1007D00092F90430127A1201D2B25949C81880F83D
:1007E0000023584840F82340574A03F1C00552F807
:1007F000256026F4803642F8256052F82520BFF3A4
:100800005F8F03F01F050122AA405B099B0003F1E3
:10081000604303F56143C3F880211A60636893F96C
:100820000320DB791B01DBB2114481F8003340F86F
:100830002240464B23604FF00008404605B0BDE81B
:10084000F08F00265BE74FF0000ECDF80CE0CDF8FE
:1008500008E070E792791201D2B203F1604101F52C
:10086000614181F80023374A42F82340364A03F1B8
:10087000C00152F8210020F4803042F8210052F8E3
:100880002120BFF35F8F03F01F0101228A405B0923
:100890009B0003F1604303F56143C3F880211A60B4
:1008A00090E752791201D2B203F1604101F5614142
:1008B00081F80023234A42F82340234A03F1C00170
:1008C00052F8210020F4803042F8210052F8212013
:1008D000BFF35F8F03F01F0101228A405B099B0079
:1008E00003F1604303F56143C3F880211A606EE7AA
:1008F0006560AB696362EB69E3620023A3622B78F6
:1009000003F5800303F58D531B02A3606F7AB7FADA
:1009100087F14909CB004FEA011CEA7A6E7B360366
:1009200046EA4206AA7A16432A6A107800283FF45B
:10093000CAAE43F0B103CCE604A011400040084029
:1009400000E100E0742B0020006000404950535249
:10095000EFF30383103B5BB21D4A03F1C00152F871
:10096000210020F4803042F8210052F82120194A59
:1009700052F823309A69D9698A421BD0196969B142
:1009800093F820000F280CD99868406841F822009D
:1009900001329A61D96991420CD0704799684968CF
:1009A000F6E70728986899BF00798854808821F86D
:1009B0001200EDE75B6893F90330590903F01F0358
:1009C000012202FA03F3044A42F82130E5E700BFAE
:1009D00000600040742B002000E100E0EFF303838F
:1009E000103B5BB2424A03F1C00152F8210020F4EF
:1009F000803042F8210052F821203E4A52F823303C
:100A000059680A6A12B15278012A11D05A69D96913
:100A10008A426BD0D96800295BD093F820000F2858
:100A20005BD9986851F82210416001325A617047D1
:100A3000DA69013A586990420ED00A69002AE5D075
:100A400091F90320500902F01F02012101FA02F27C
:100A5000294941F82020D9E710B491F9032024490D
:100A600002F1C00051F8204024F4803441F82040C5
:100A700051F82010BFF35F8F02F01F000121814069
:100A80005209920002F1604202F56142C2F88011FF
:100A900011605A69D9698A420BD0D96861B193F85B
:100AA00020000F280CD9986851F8221041600132BB
:100AB0005A615DF8044B7047996800204860F6E77A
:100AC0000728986899BF895C017131F812108180FC
:100AD000EDE7996800204860A7E70728986899BF64
:100AE000895C017131F8121081809EE7704700BF68
:100AF00000600040742B002000E100E0EFF303836E
:100B0000103B03F0FF0C5BB2314A03F1C00152F815
:100B1000210020F4803042F8210052F821202D4A93
:100B200052F823008268D27812F0020F04D0426893
:100B3000527A012A00D0704710B55B090CF01F0CE7
:100B4000012202FA0CF22033234941F82320BFF39B
:100B50004F8FBFF36F8F436893F90230002B0DDB8B
:100B60005A0903F01F030121994002F120031A4A98
:100B700042F82310BFF34F8FBFF36F8F8268137853
:100B800023F040031370436893F90230002B03DA1B
:100B90000121FFF73DFD10BD0D4A03F1C00152F8E0
:100BA000214024F4803442F8214052F82120BFF340
:100BB0005F8F03F01F0101228A405B099B0003F154
:100BC000604303F56143C3F880211A60E0E700BF8A
:100BD00000600040742B002000E100E070B5EFF3EE
:100BE0000383103B5CB2324B53F824506B6893F98B
:100BF0000230002B0DDB5A0903F01F03012199403D
:100C000002F120032B4A42F82310BFF34F8FBFF3AA
:100C10006F8FAA68137823F0400313706B6893F901
:100C20000230002B1ADAAA68D378DEB20021D17024
:100C300013F0080F2DD116F0010F2FD106F0140676
:100C4000142E30D01C4A04F1C00352F8231021F4B2
:100C5000803142F8231052F8233070BD164A03F158
:100C6000C00152F8210020F4803042F8210052F8EF
:100C70002120BFF35F8F03F01F0101228A405B092F
:100C80009B0003F1604303F56143C3F880211A60C0
:100C9000C9E705212846FFF7BBFCCCE7042128461D
:100CA000FFF7B6FCCAE708212846FFF7B1FCC9E701
:100CB000742B002000E100E00060004010B4034607
:100CC000002058601A6A9070DA6992F905204FEA9C
:100CD000521C02F01F02012101FA02F2284C0CF111
:100CE000200C44F82C20BFF34F8FBFF36F8FDA69CD
:100CF00092F90B204FEA521C02F01F0201FA02F295
:100D00000CF1200C44F82C20BFF34F8FBFF36F8FF2
:100D1000DA6992F907204FEA521C02F01F0201FA29
:100D200002F20CF1200C44F82C20BFF34F8FBFF3DC
:100D30006F8FDA6992F909204FEA521C02F01F0204
:100D400001FA02F20CF1200C44F82C20BFF34F8F73
:100D5000BFF36F8FEFF3108481F31088094A516855
:100D6000DB6993F800C04FF0004323FA0CF30B4308
:100D70005360536884F310885DF8044B704700BFDC
:100D800000E100E0004008404161826100207047BE
:100D900010B4046AA37803F07B03A3700378CBB983
:100DA000837803F00303D21A0B440261C360026A22
:100DB000937843F08003937003783BB9837803F012
:100DC0000303022B08D0036A0A78DA7000205DF86A
:100DD000044B70470B46E8E7026A0B8843F47E43F6
:100DE000D381F3E74162C2628362002070474FF013
:100DF000FF334B600B6000207047034611F0020F79
:100E000025D0006A827802F07B0282701A784AB19B
:100E1000186A828A42F004028282186A828A12F078
:100E2000040FFBD10020186111F0010F12D0002235
:100E30009A611A786AB1196A8A8A42F002028A8231
:100E40001A6A938A13F0020FFBD100207047062024
:100E5000EAE700207047034682690A600020986133
:100E60007047FFFF30B4540902F01F0301259D4075
:100E70000E4B203443F82450BFF34F8FBFF36F8FD6
:100E80000B4C02F1C00C54F82C5025F4803544F87A
:100E90002C5054F82C400901C9B2134483F80013B4
:100EA000044B43F8220030BC704700BF00E100E073
:100EB00000600040742B002070B584B005460E46DB
:100EC0009446846ACCB194E80F000DF1100E0EE93F
:100ED0000F00EB691B782360A66084F804C0EB6AFE
:100EE000E3606B6A20469847AC6A24B104AB13E90F
:100EF0000F0084E80F0004B070BD6C46E9E7FFFF07
:100F0000F8B504460D460B7801229A4012F0060F00
:100F100006D0CA695268127812F0080F40F05B815F
:100F200003F5800303F58C531B0223620022227019
:100F3000297840F21923CB4003F001031B012370F1
:100F4000E5616B696362AB69E362A262A378012227
:100F500062F30103A3706B78002B08BF0222A37811
:100F600062F30103A37095F90B20A97A2046FFF7DD
:100F700079FF95F9052029792046FFF773FF95F948
:100F80000720A9792046FFF76DFF95F90920297AF6
:100F90002046FFF767FFEFF31080012383F31088EB
:100FA0008E4B5A682E784FF00041F14022EA010240
:100FB0005A605B6880F31088226A00239370226A6B
:100FC0001371226A5372226A9372226AD372226A5E
:100FD00053832A7840F21923D34013F0010F02D033
:100FE000236A4022DA74236A06221A772278AAB189
:100FF000013AE369DB691B7A13401B0203F4706357
:10100000120392B2134343F00101226A43F0070333
:101010009382226A938A9BB29942FBD1AA78EB7899
:10102000DB0043EA02136A78032A00F0B580002A45
:101030000CBFE222F222216ADBB20B70216AD3B22A
:101040008B71E9690B7B082B00F0AA80226A5B0098
:1010500003F0020353734B78DB01DBB28A78520151
:1010600002F020021343226A002010720A78023A2A
:10107000D2B2012A00F29880226AFF2050700A78CA
:10108000022A08BF43F01003226ADBB2D3710020AA
:10109000E06020616061A061ED69297801F00301E1
:1010A000E36993F905304E4A03F1C00652F8267001
:1010B00060F3104742F8267052F82660BFF35F8F46
:1010C00003F01F064FF0010C0CFA06F65B099B00BB
:1010D00003F1604303F56143C3F880611E60E36977
:1010E00093F90B3003F1C00652F8267060F31047F5
:1010F00042F8267052F82660BFF35F8F03F01F0698
:101100000CFA06F65B099B0003F1604303F56143AB
:10111000C3F880611E60E36993F9073003F1C006EC
:1011200052F8267060F3104742F8267052F8266095
:10113000BFF35F8F03F01F060CFA06F65B099B00F6
:1011400003F1604303F56143C3F880611E60E36906
:1011500093F9093003F1C00652F8267060F3104786
:1011600042F8267052F82620BFF35F8F03F01F026B
:101170000CFA02F25B099B0003F1604303F5614343
:10118000C3F880211A6041F07001236A99706B895D
:101190002381144B6360F8BD43F04003F2224AE719
:1011A000236A0A225A7356E7226ADBB2D371236A92
:1011B0004A68917859705078197860F30101197074
:1011C000D1789974D979127802F05C0201F0A30108
:1011D0000A43DA715BE70320DDE700BF0040084007
:1011E00000600040554943530346C269107801220C
:1011F000824012F0060F03D00A7812F0080F25D1B2
:1012000010B5186A827802F07B0E02F00B02827031
:101210000020D8601A6A8C7854704C7892F800C01C
:1012200064F3010C82F800C091F803C082F812C088
:1012300092F807C0097801F05C010CF0A30C41EAB8
:101240000C01D1711B6A83F802E010BD03207047C6
:1012500008B5EFF30383103B5BB23A4A03F1C001D8
:1012600052F8210020F4803042F8210052F8212069
:10127000354A52F82300C3691B691BB10369002B6F
:101280004ED008BD0369002B4AD00378002B2DD027
:10129000026AD18AC1F3042199421AD3026A1379EE
:1012A00003F07D0343F002031371E7E7026AC368AA
:1012B0001B8843F47E43D381837803F003030269E0
:1012C000D21A0261C2681A44C260013103788B42AB
:1012D000E4D90369002BE1D0837803F00303022BE8
:1012E000E4D0036AC2681278DA73E5E7837803F022
:1012F0000303022B0DD0036AC2681278DA70837878
:1013000003F003030269D21A0261C2681A44C26080
:10131000B4E7026AC3681B8843F47E43D381EEE7D7
:10132000026A937803F07F0343F004039370002371
:10133000C360436A002BA4D080220021FFF7BCFDCC
:101340009FE700BF00600040742B002030B583B0E1
:10135000EFF30383103B5BB22B4A03F1C00152F859
:10136000210020F4803042F8210052F82120274A41
:1013700052F8234004251BE0A37803F00303022B5B
:10138000236A07BF198AC1F308015979C9B20191CB
:10139000A369CBB9636A1BB12A462046FFF78CFDCF
:1013A0002378002B2ED0236ADB8A13F01F0F26D060
:1013B0002378002BE0D0236ADA8A12F01F0F1ED0A8
:1013C000198AC1F30801E2E7A27802F0030201A939
:1013D000606913F0C5FBA27802F00302636913444D
:1013E0006361A3699B1AA361002BD9D1636A002BA7
:1013F000D6D0012200212046FFF75EFDD0E7236A08
:10140000BE221A7103B030BD00600040742B002072
:1014100010B5EFF30383103B5CB20D4B53F824007F
:10142000026A937803F07B039370436A1BB1022234
:101430000021FFF741FD074A04F1C00352F82310D1
:1014400021F4803142F8231052F8233010BD00BF40
:10145000742B00200060004010B5EFF30383103BB5
:101460005CB21B4B53F82400037843B9837803F034
:101470000303022B03D0036A5979C9B203E0036A5C
:10148000198AC1F30801036A93F804C00CF038020A
:101490001CF0100F06D093F81CC01CF0010F08BF01
:1014A00042F0400293F804C00CF0C70C83F804C06B
:1014B000436A0BB1FFF700FD064A04F1C00352F87E
:1014C000231021F4803142F8231052F8233010BD4C
:1014D000742B002000600040034600201860704715
:1014E0000B0A1B0153FA81F1034B53F82130C3F36C
:1014F000400313700020704700080840090A4901A2
:1015000001F1804101F500214B68138000207047F4
:10151000090A490101F1804101F5002123EA020095
:101520001A4042EA00428A6000207047CBB2012094
:10153000984080B262B9024600200B0A5B0103F1B9
:10154000804303F5002340EA024098600020704782
:101550000022F2E710B4090A490101F1804101F5C6
:1015600000210C6802EA0300204362EA0302024001
:101570000A6000205DF8044B7047090A490101F137
:10158000804101F500214B68C3F30F431380002015
:1015900070470B0A5B0103F1804303F50023586891
:1015A000C9B201238B4099B203EA10438B4214BFA6
:1015B00000230123137000207047090A490101F13B
:1015C000804101F5002123EA02001A4042EA00426C
:1015D000CA60002070470B0A5B0103F1804303F5EA
:1015E0000023C8B201218140D868012A07BF20EA40
:1015F00001400143884340EA0141D960002070471F
:1016000010B411F4803F0ED0030A0C4A1B0153FAA8
:1016100080F352F8234024F4803442F8234021F42C
:10162000803442F82340030A1B0153FA80F0034B35
:1016300043F820105DF8044B704700BF00080840D5
:101640002DE9F84F0388002B4BD007464FF00008D8
:10165000DFF898A04FF001093EE09AF8BB2409FAA0
:1016600004F35FFA83FB134224D00134032C2ED001
:101670007B68991935F8022B89889142F5D19B59DD
:1016800003F0B853B3F1807FE7D09AF8BB2409FA8E
:1016900004F35FFA83FB1342E7D0484601F0AAFF48
:1016A0009AF8BB3423EA0B038AF8BB34484601F0AE
:1016B0006FFFDAE7484601F09DFF9AF8BB3443EA32
:1016C0000B038AF8BB34484601F062FFCDE708F10E
:1016D00001083B88434504D94FEAC806024D00245F
:1016E000C6E7BDE8F88F00BF9CDC020000E00140C7
:1016F00038B50546FFF7A4FFEFF31081012383F30C
:1017000010881A4B1B6823B9194B0022DA7040224B
:10171000DA70164A13680133136081F310882B883E
:101720006BB100246B6803EBC40253F8341090884B
:10173000FFF766FF01342A88A3B29A42F2D8EFF38A
:101740001083012282F31088084A12681AB10749EF
:101750000A68013A0A60054A126822B9044A00215F
:10176000D1708021D17083F3108838BD702B002098
:10177000000D084008B5034B03600846FFF7B8FFAB
:10178000002008BD54524F5008B50846FFF7B0FF7F
:10179000002008BD70B586B00C461546ADF808109F
:1017A00001920126ADF80C6001AB049303A8FFF78A
:1017B00047FFEFF3108286F31088144B1B6823B9A0
:1017C000134B0021D9704021D970104E336801337A
:1017D000336082F3108829462046FFF711FFEFF3AC
:1017E0001083012282F31088326812B13268013A04
:1017F0003260064A126822B9054A0021D170802160
:10180000D17083F31088002006B070BD702B0020CB
:10181000000D08408368C2689A60002070478368A2
:10182000C2685A60002070478368C268DA6000208E
:10183000704730B44368DB695A6842F000429968E7
:1018400041F00044D96841F0004185686C618468CA
:10185000A16181680A6182681969516282685B6965
:101860009362002030BC70470139836899668368B1
:10187000DA6A12F0010F03D159668368C268DA6030
:10188000002070470620704783680139123203EB4D
:1018900082035960002070478368DB6AC3F300034A
:1018A0000B7183689B6C0B60002070474161C261C3
:1018B00083610020704782684FF0004313618268A3
:1018C00053618268936182680023536282689362E5
:1018D000704708B5FFF7EFFF002008BD002810DBB8
:1018E000430900F01F0101228A402033054941F8D5
:1018F0002320BFF34F8FBFF36F8F034B002243F8BA
:101900002020704700E100E0742B002038B5044629
:101910004368DD6993F91200FFF7E0FF95F92400B1
:10192000FFF7DCFF95F92500FFF7D8FF00202060C6
:10193000A368E2689A60A368586338BD83685B6EE9
:1019400001338B608368D86AC0F3C350084B1A6AAE
:10195000C2F3026C074B1B6803FA0CF302F0070298
:10196000D340C3404B6001230B700020704700BF81
:1019700000E00140002D002030B585B004468C46C3
:1019800015468369B3B193E807000DF1100E0EE917
:10199000070083F804C09D60E2691A606269184616
:1019A0009047A36923B104AA12E9070083E807005E
:1019B00005B030BD01ABECE7002800DA7047090143
:1019C000C9B200F1604303F5614383F800130F4B84
:1019D00043F820200E4B00F1C00253F8221021F4EE
:1019E000803143F8221053F82230BFF35F8F00F0AC
:1019F0001F02012393404009800000F1604000F580
:101A00006140C0F880310360D8E700BF742B00202C
:101A100000600040F8B504460D460B7C012202FA36
:101A200003F3C360416013F00F0F0CBF1346002394
:101A30000374097C484B0B441B0283606B69436150
:101A4000AB69C36100238361EE69EFF3108782F312
:101A50001088424A116995F810C04FF0004020FAF2
:101A60000CF021EA00011161126987F31088A26865
:101A70004FF425411160A268D362A268D363A268C3
:101A800093642B7ADB056F68013F2A78032A08BF2D
:101A900043F48033A268D3622046FFF70CFFA368AB
:101AA000B269DA61A368F2691A62A3689F66A368E3
:101AB0005F66B26B6368DB6993F8301011F0010F59
:101AC00003D0A068996A0139C16493F8301011F00D
:101AD000020F03D0A168DB6A013B0B65A1680023FC
:101AE0008B63A168C1F88830B36B3BB996F82010BE
:101AF00096F821305B0743EA41331A4396F83030B9
:101B0000002B14BF4FF4A0014FF4AA01A36819647D
:101B1000A3685A63A36803221A63A36801221A63A5
:101B2000A368E268DA602246697C95F91200FFF743
:101B300043FF224696F8221096F92400FFF73CFF57
:101B4000224696F8231096F92500FFF735FF044B3F
:101B500023600020F8BD00BF901640000040084000
:101B60005450470038B5EFF30383103B03F0FF0CEC
:101B70005BB2204903F1C00051F8202022F48032EA
:101B800041F820209A0002F1804202F5C042D2F8CA
:101B90000013194951F8230041680978012906D03A
:101BA00043691BB100221146FFF7E6FE38BD81688C
:101BB000C4688C6084680021A1648468E1648468DE
:101BC00021650C4C03F1C00E54F82E5061F3104502
:101BD00044F82E50D2F80023BFF35F8F5B090CF05E
:101BE0001F0C012202FA0CF26033044941F8232051
:101BF000D6E700BF00600040742B002000E100E049
:101C0000054BB3F8843003F08103003B18BF012378
:101C10000B700020704700BF00E07F400620704737
:101C20000620704706207047062070470620704740
:101C30000B46064A92E8030083E80300044A08338F
:101C400092E8030083E803000020704760DD020093
:101C500048DD020000230360436893F91130002B34
:101C60000DDB5A0903F01F030121994002F1200303
:101C7000104A42F82310BFF34F8FBFF36F8F0E4B04
:101C800000221A76436893F9133093420DDB5A0908
:101C900003F01F030121994002F12003054A42F895
:101CA0002310BFF34F8FBFF36F8F0020024B1875C7
:101CB000704700BF00E100E000E07F408163026404
:101CC000C36300207047FFFF30B583B01446002A7D
:101CD0005BD1436893F911305A0903F01F030125C2
:101CE0009D4002F120033A4A42F82350BFF34F8F40
:101CF000BFF36F8FC26A374B1A63A3F5F033E82244
:101D00001A704FEA510EC1F347021A7001292BD9FC
:101D10004FF0000C304D2F4903690193836A1B88F3
:101D20002B80D1F8803013F4806F07D0019B5A1EAE
:101D30000192002BF5D1142003B030BD836A023329
:101D40008362C36A0233C362036B013B03630CF11A
:101D5000010CF445E0D3204BD0221A7034BB06E0CE
:101D60000020E9E70020E7E71B4BD0221A70436808
:101D700093F91130590903F01F03012202FA03F30A
:101D8000134A42F821300020D6E7C26A114B1A6389
:101D9000A3F5F033E8221A704FEA510EC1F347025F
:101DA0001A700129B4D80C4BD0221A70094BD3F801
:101DB000803013F4004FD3D1064A013CD2F8803072
:101DC00013F4004FCED1002CF7D11420B4E700BF9C
:101DD00000E100E000E07F4000007E4010B40023FE
:101DE00080F83430354C012384F81634216A344BA2
:101DF0001B68C1F3026203FA02F2C1F30271CA4026
:101E0000216AC1F302618B40CB402E498A4251D9ED
:101E100003F5742303F23F232B49A1FB03439B0CDF
:101E200002F5742202F23F22A1FB0212920C02F58B
:101E3000F0522649A1F8E42043F6B85103FB01F122
:101E4000234AA2FB01418908816040F6D86103FB67
:101E500001F1A2FB01418908C1605900A2FB0141C7
:101E600089080161542103FB01F1A2FB01418908AA
:101E70004161184903FB01F1A2FB0141890881611D
:101E800044F2506103FB01F1A2FB01418908416268
:101E9000114903FB01F1A2FB0141890801620F49CD
:101EA00001FB03F3A2FB03239B08C36100205DF841
:101EB000044B70474FF4FB70F9E700BF00E00140AE
:101EC000002D0020FF083D0083DE1B4300E07F4023
:101ED000ABAAAAAA38AF040080DE0F00A0F7030067
:101EE00008B5FFF77BFF08BD1A4BB3F884C01FFA93
:101EF0008CFC4FF42A42A3F88420B3F884309BB2C0
:101F00008BB14FF4964200201249002A08BF4FF4CB
:101F1000FA70013AB1F884309BB2002BF5D1BCF1D4
:101F2000010F02D070470020F9E70A4B4DF601126D
:101F3000A3F84420084B0122A3F804211A46B2F862
:101F400004319BB2002BFAD1034B0122A3F80021EC
:101F5000E8E700BF00E07F4000C0014082B04FF4DE
:101F600096430193104BB3221A7003F5F033D3F864
:101F7000803013F4004F0AD10C4A019B8BB1019BB6
:101F8000013B0193D2F8803013F4004FF5D0074B9A
:101F90001B7C13F0100F40F2F51008BF002002B0B8
:101FA00070471420FBE700BF00007E4000E07F4048
:101FB00010B503461446134A127C12F0100F0CD1D0
:101FC0000020104AD2F880200A4208BF0446A3B974
:101FD000ACB1FFF7C3FF204610BD0A4AD2F88020FB
:101FE00012F4804F02D140F2F510EAE7054A107C66
:101FF0000020107440F2F510E3E71C46E9E72046A4
:10200000EAE700BF00E07F4010B582B004460A4610
:10201000C36BA3B193E803000DF1080C0CE90300B6
:102020001A70226C5A60A26B18469047E36B23B17A
:1020300002AA12E9030083E8030002B010BD6B4658
:10204000EEE7FFFF2DE9F041044641600B785BB9F4
:10205000314B00221A761A752046FFF7BFFE08B9E9
:102060002E4B2360BDE8F0814B688363CB6803642B
:102070000026C663DFF8A0C001228CF8182091F971
:102080001130087C0001C0B2254DEF1887F800031D
:10209000244F47F82340244803F1C00E50F82E8007
:1020A00066F3104840F82E8050F82EE0BFF35F8FA3
:1020B00003F01F0E02FA0EFE5B099B0003F1604362
:1020C00003F56143C3F880E1C3F800E098238CF87E
:1020D000143091F91330897C0901C9B21D4485F887
:1020E000001347F8234003F1C00150F8215066F374
:1020F000104540F8215050F82110BFF35F8F03F0D6
:102100001F018A405B099B0003F1604303F56143B3
:10211000C3F880211A609FE700E07F404E45504F92
:1021200000E100E0742B00200060004010B483B098
:102130004FF49643019343681A78BAB92C4B4AF688
:102140008022A3F88420B3F884309BB2802B47D040
:10215000274A019B002B45D0019B013B0193B2F81C
:1021600084309BB2802BF4D100203DE093F91130F4
:10217000204A03F1C00152F8214024F4803442F88F
:10218000214052F82110BFF35F8F03F01F0401219B
:1021900001FA04F45B099B0003F1604303F561431A
:1021A000C3F880411C60436893F9133003F1C00009
:1021B00052F8204024F4803442F8204052F8202085
:1021C000BFF35F8F03F01F0201FA02F25B099B006D
:1021D00003F1604303F56143C3F880211A60ADE762
:1021E000002001E04FF4FA7003B05DF8044B704733
:1021F00000E07F40006000402DE9F84304465B08A2
:1022000003638162C262002380F83430FFF78EFFDF
:1022100038BB63681B78EBB1012384F83430074680
:1022200004264FF018094FF480583A4631462046AC
:10223000FFF74AFD63681B789BB94A464146FFF7A2
:10224000B7FE0546236B3BB10028EED0FFF74CFEEE
:10225000284606E0E768E3E7FFF746FE002D18BFD3
:102260002846BDE8F883FFFF2DE9F0470446002328
:1022700080F8343021F03F0181620263FFF756FF9E
:10228000002849D1814663681B7863B1022384F832
:1022900034300746244B0122A3F8E0201D46234E8C
:1022A0004FF0200810E0676AF4E7484600E038463F
:1022B00063681B7873BB19224FF40051FFF778FE57
:1022C0008246236B03B350BBA36A2B6386F800805E
:1022D000D0233370A36A4033A362236B013B236393
:1022E000002FE4D0D5F8803013F4004F0AD13B46DC
:1022F000013BD5F8802012F4004FD6D1002BF7D146
:102300001420D5E74846D3E7FFF7EEFDBAF1000FFA
:1023100018BF5046BDE8F0874FF4FA70FAE7FFF7B0
:10232000E3FD5046F6E700BF00E07F4000007E403E
:10233000F8B507460D4614461E46FFF7F7FE00287F
:1023400039D1214B002283F8D0201D63621E2A441C
:102350005A63A3F5F03371221A70D0221A707B6889
:102360001B784BBBA4087A6904FB0222164BD3F8F6
:10237000803013F4004F0AD122B3134C013AD4F841
:10238000801011F4004F02D1002AF7D114204FF42D
:10239000FC720021FFF70CFE04460B4B93F8D4307F
:1023A000DBB2012B14BF002301233370FFF79CFD28
:1023B000002C18BF2046F8BD032387F834300223D1
:1023C0003370F8E71420E2E700E07F4030B583B0D7
:1023D000054643681A78F2B193F91130590903F0B0
:1023E0001F03012202FA03F32C48203140F8213068
:1023F000BFF34F8FBFF36F8F6B6893F91330590999
:1024000003F01F039A4001F1200340F82320BFF39B
:102410004F8FBFF36F8F224BB3F884309BB223B33F
:10242000FFF79CFD04464FF4964301931D4B502249
:102430001A7003F5F033D3F8803013F4004F0AD14B
:10244000174A019BABB1019B013B0193D2F880304D
:1024500013F4004FF5D0124B1B7C13F0100F12D168
:102460009CB9FFF741FD044611E02846FFF75EFEE8
:10247000D6E754B9FFF738FD142408E0FFF734FD20
:1024800040F2F51403E0002CF8D0FFF72DFD0023F7
:1024900085F83430204603B030BD00BF00E100E0D5
:1024A00000E07F4000007E4008B5FFF78FFF08BDC9
:1024B00070B5EFF30383103B5CB2174B53F8245015
:1024C000164A137CD2F8802013F0080F0CD1D9B231
:1024D00011F0800F1CD111F0100F1BD012F4405FCF
:1024E0000CBF0626072600E004262846FFF76EFFED
:1024F0000B4A04F1C00352F8231021F4803142F852
:10250000231052F8233031462846FFF77DFD70BD79
:102510000526EAE70726E8E7742B002000E07F4065
:102520000060004038B5EFF30383103B5BB2234AF1
:1025300052F82340224AC03352F8231021F480314C
:1025400042F8231052F8233094F83450012D13D060
:10255000022D1FD01B4B93F8D430DBB2012B14BFDC
:1025600002250325FFF7C0FC002384F834302946F8
:102570002046FFF749FD38BD236B002BF2D0002227
:1025800004212046FFF7A0FB0028F4D02046FFF7E7
:102590001DFFF0E7236B0BB90025E3E7A26A094BA7
:1025A0001A63A3F5F03320221A70D0221A70A36A9E
:1025B0004033A362236B013B2363DCE7742B0020D1
:1025C0000060004000E07F4030B402460020906090
:1025D000136893F915304FEA531C03F01F010123D0
:1025E00003FA01F1204C0CF1200C44F82C10BFF33D
:1025F0004F8FBFF36F8F116891F916104FEA511C7E
:1026000001F01F0103FA01F10CF1200C44F82C1029
:10261000BFF34F8FBFF36F8F116891F917104FEA17
:10262000511C01F01F0103FA01F10CF1200C44F8D8
:102630002C10BFF34F8FBFF36F8F516881F84C0898
:10264000C1F82C04EFF3108483F3108807494D6818
:1026500012681268C2F1020293402B434B604B6830
:1026600084F3108830BC704700E100E0004008406F
:10267000062070474268B2F842389BB20B6092F86D
:102680004E384B7392F84F380B7392F8503803F072
:102690007F030B6183F07F0382F85038002070477E
:1026A000C1614262036200207047FFFF037B43B1B8
:1026B000022B04D00023106820F0604006E013795C
:1026C00053B91368074800EA834000235279034353
:1026D00043EA82730B607047012B14BF0023012370
:1026E000DB07E8E70000FC1F2DE9F041466873189E
:1026F00093F82038DB0928D10D46144601F1200853
:102700004FEA081706EB0818036841461869FFF7F7
:10271000CDFFA279B8F8043062F30303A8F80430BF
:10272000A179B81D304404F10C0239B103464418B4
:1027300012F8010B03F8010BA342F9D12E448023B8
:1027400086F820380020BDE8F0814EF66320FAE7D5
:1027500070B58AB005468C46066A6EB3EE463446BE
:102760000FCCAEE80F000FCCAEE80F0094E80300EA
:102770008EE80300B646BCE80F00AEE80F00BCE8E8
:102780000F00AEE80F009CE803008EE80300EB6941
:10279000304698472B6A6BB19C46EE46BEE80F0068
:1027A000ACE80F00BEE80F00ACE80F009EE80300A5
:1027B0008CE803000AB070BD0E46E8E74268B2F844
:1027C000403823F48063A2F84038B2F8403861F30F
:1027D0000923A2F840380902B2F8423803F4E06352
:1027E0008B42F9D17047F8B504460D464768437BE4
:1027F00093420AD1237BAB4206D0052D0FD0294648
:102800002046FFF7DBFF2573F8BD16460221FFF7D0
:10281000D5FF87F85868667302232373EAE702211D
:102820002046FFF7CBFFB7F8403843F48063A7F8A2
:102830004038B7F8423813F4806FFAD0E3E708B5B0
:10284000FFF7D1FF002008BD2DE9F84F81468A46E9
:102850000D690F6807F58027A8373F034760EFF33E
:102860001086012181F310888E4A5468DAF800300E
:10287000C3F1020301FA03F324EA0303536053682C
:1028800086F31088C0F800A0DAF80830C361DAF8DF
:102890000C304362002404622B7803762246FFF753
:1028A000A2FF2A7B2B7DDB0043EA420343F4E07363
:1028B000A7F84038DAF804205368591E9368013BA2
:1028C0001B0243EA0173D168013943EA013399F8E5
:1028D00018100B4311680139734A02EA014213438D
:1028E000C7F84438224602214846FFF77CFF802380
:1028F00087F8503807F500764FF4007221463046CD
:1029000013F090FEA0464FF0400B07E043463A1903
:1029100082F8203801341036202C0ED0AA6802EB41
:10292000C4029379002BF1D12969A142EFD9314634
:102930002846FFF7BBFE5B46E9E72B69032B21D94D
:10294000002318466FF060440F26DFF870C10BE0DB
:1029500003F5807E47F82E2006FA01F10843013383
:102960002A69B3EB920F0ED299006A6852F82320BD
:10297000A242F4D295F80CE0BEF1000FE8D10CEAC7
:102980008242E5E70020C043C7F828040022114630
:102990004846FFF728FFB7F8403843F02003A7F870
:1029A0004038B7F8403813F0200FFAD19AF91530B3
:1029B0009AF814201201D2B23C48C11881F80023C1
:1029C0003B4C44F823903B4A03F1C00152F821509C
:1029D00025F4803542F8215052F82110BFF35F8F63
:1029E00003F01F05012101FA05F55B099B0003F1C6
:1029F000604303F56143C3F880511D609AF91630B6
:102A00009AF814502D01EDB2C61886F8005344F818
:102A1000239003F1C00552F8256026F4803642F871
:102A2000256052F82550BFF35F8F03F01F0501FAB0
:102A300005F55B099B0003F1604303F56143C3F8AF
:102A400080511D609AF917309AF814502D01EDB29B
:102A5000184480F8005344F8239003F1C00052F862
:102A6000204024F4803442F8204052F82020BFF364
:102A70005F8F03F01F0291405B099B0003F16043ED
:102A800003F56143C3F8801119603E2387F84C3881
:102A90004FF0FF33C7F82C34074BC9F8083000203B
:102AA000BDE8F88F004008400000FF0300E100E0AF
:102AB000742B0020006000404E4143520000FC1F78
:102AC00030B58BB0EFF30383103B5BB22F4AC033BA
:102AD00052F8231021F4803142F8231052F82330A9
:102AE000EFF30383103B5BB2294A52F823502822AC
:102AF0000021684613F096FD6C6894F84D38DBB2FF
:102B0000ADF80430002284F84D28B4F8422812F0C1
:102B1000100F39D043F02003ADF8043094F8532857
:102B2000D2B2022384F8533894F8523803F01F03CA
:102B300084F85328E11891F8202822F0040281F843
:102B400020282A68126800926A6A049203936946F0
:102B50002846FFF7FDFDB4F8423813F0100F11D0EE
:102B60002B681A69127D6AB193F91530002B09DBC5
:102B70005A0903F01F030121994002F14003054A5D
:102B800042F823100BB030BD0023DAE700600040AC
:102B9000742B002000E100E02DE9F0418AB0EFF352
:102BA0000383103B5BB2404AC03352F8231021F438
:102BB000803142F8231052F82330EFF30384103CA5
:102BC00004F0FF0664B2394B53F824004FF48063DD
:102BD000ADF80430456895F85338DBB2002285F82B
:102BE000532895F8527807F01F0785F85338D0F826
:102BF000048007F120031B0158F80320C2F3807101
:102C00008DF8191058F8031003681B691B7B43EA01
:102C1000D17303F001038DF81830002B41D1C2F3BA
:102C20008A42059207F1200308EB03139B8803F007
:102C30000F039C46082B28BF4FF0080C8DF81AC0D4
:102C40006BB10DF11F02002308EB071E0EEB030111
:102C500091F8061202F8011F01336345F6D1B8441A
:102C6000442388F8203800230793039703681B68E0
:102C70000093436A04936946FFF76AFDB5F842384A
:102C800013F0010F0AD0002C08DB640906F01F06C0
:102C90000123B3404034064A42F824300AB0BDE86C
:102CA000F08122F06042BCE700600040742B0020FD
:102CB00000E100E030B58BB0EFF30383103B5BB273
:102CC000244AC03352F8231021F4803142F82310F3
:102CD00052F82330EFF30383103B5BB21E4A52F8E5
:102CE00023500022ADF804206C6894F85318C9B240
:102CF000012384F8533894F8523803F01F0384F802
:102D00005318E11881F8202881F8202803934FF404
:102D10000063ADF804302B681B6800936B6A049362
:102D200069462846FFF714FDB4F8423813F0020F45
:102D30000ED02B6893F91730002B09DB5A0903F0EA
:102D40001F030121994002F14003044A42F8231075
:102D50000BB030BD00600040742B002000E100E0AB
:102D600081610262C361002070470368828A1A8011
:102D700000207047062070470368002018807047C5
:102D800003681B88C3F3C0330B70002070470368CF
:102D9000103133F81130138000207047062070473F
:102DA00006207047002800DA70470901C9B200F117
:102DB000604303F5614383F800130F4B43F8202071
:102DC0000E4B00F1C00253F8221021F4803143F879
:102DD000221053F82230BFF35F8F00F01F0201234F
:102DE00093404009800000F1604000F56140C0F868
:102DF00080310360D8E700BF742B002000600040E2
:102E00002DE9F04704460D464E694160CB68836169
:102E10000B6903620023C3610B885B0203F18043EB
:102E200003F5B813036049698A78B2F13F0018BF0F
:102E30000120B2FA82F35B091B0243EA4023A8781F
:102E400043EA40330879002861D043F430739BB2E1
:102E5000A3828A78120202F47C52C87800F03F0004
:102E600042EA000CE8782A79D20342EA4002487824
:102E700042EA401291F800E0EFF31089012080F35C
:102E80001088274FD7F80C80B5F800A0CAF1100AB7
:102E900000FA0AF028EA0000F860F86889F3108860
:102EA000206823F400735B045B0C038023681FFA23
:102EB0008CFCA3F810C0236892B2DA81236883F8EF
:102EC0000CE08B79012B14BF00230123226882F8C8
:102ED000D0302246697A95F90600FFF763FF224653
:102EE000A97A95F90700FFF75DFF2246717A96F9F6
:102EF0000700FFF757FF2246B17A96F90800FFF75F
:102F000051FF00202061074BA360BDE8F0873F2AF6
:102F100012BF43F4107343F4024343F0400396E7B7
:102F20000040084043444152002810DB430900F0B0
:102F30001F0101228A402033054941F82320BFF3B5
:102F40004F8FBFF36F8F034B002243F82020704751
:102F500000E100E0742B002070B504460025856078
:102F6000C56043685E6993F90600FFF7DDFF63689B
:102F700093F90700FFF7D8FF96F90700FFF7D4FF92
:102F800096F90800FFF7D0FF23681D8223681D8093
:102F9000EFF31080012383F31088074AD668616835
:102FA0000988C1F110018B403343D360D36880F3AB
:102FB0001088284670BD00BF00400840F0B50E687C
:102FC00026F0C04243685C694D6825F0C04E8B68AE
:102FD00023F0C04CB6B20768BE800668ADB2B582B9
:102FE00005689BB22B810368150CDD8003684FEAEE
:102FF0001E4EA3F816E003684FEA1C4CA3F80AC063
:10300000684B1D6AC5F30266674B1B68B340C5F386
:103010000215EB40654DA5FB03539B0941F23605B4
:1030200005FB03F305F1864505F5DE1505F64D654F
:10303000A5FB03539B0C0133072B38BF07230E68F6
:103040004D6846EA050E1EF0005C21D0EFF3108CAF
:10305000012585F31088564DEE6826F48006EE6053
:10306000ED688CF31088534D90262E700568DEB203
:1030700085F8DE600D6815F0005F0CBF4FF4806CC2
:103080004FF4807C8D6815F0005F18BF4CF0010C88
:103090001EF0804F11D00568DBB285F8DF300B6879
:1030A00013F0804F14BF4CF4007C4CF4006C8B6820
:1030B00013F0804F18BF4CF0020C03681FFA8CFC11
:1030C000A3F812C0CB68002B6AD01D8915F4006FDD
:1030D00034D00668A6F890500668B3F80AC0A6F87F
:1030E0009CC00668B3F80CC0A6F89EC01E681FFA04
:1030F00086FC0768A7F894C04FEA164C2CF4C04C25
:103100001FFA8CFC0768A7F896C0C6F341760768DB
:1031100087F892605E681FFA86FC0768A7F898C077
:103120004FEA164C2CF4C04C1FFA8CFC0768A7F829
:103130009AC0C6F34176076887F893601E8916F433
:10314000007F10D09E7C93F813C046EA0C060768F7
:1031500087F8A6600668B3F80EC0A6F8A8C006688F
:103160001B8AA6F8AA300368A3F8905003680D8A5A
:10317000A3F8805023796BB1046823889BB223F0B5
:103180001F03B2FA82F21F339B1A9BB22380828AFA
:1031900013438382084BC3600B6803610020F0BDBA
:1031A0000025E0E700E00140002D0020D34D621033
:1031B0000040084000300F404344415210B50269BE
:1031C000BAB14FEA72724FF0FF3301249E460133C9
:1031D00004FA03FC1CEA020FF8D00EF10E04036897
:1031E00003EB44030B60B2FA82F2C2F11F02A2EBBE
:1031F0000E024A6001230B724FF4B0734B81436897
:103200001B8804335B004B724FF0FF33CB60054BE0
:10321000D3F87C319BB2CB604FF47A630B820020F1
:1032200010BD00BF00B07F400368103133F811308B
:103230009BB241680979012908BF1B041360002073
:103240007047FFFF064B93F826101A6AC2F302621A
:10325000044B53F82130D340034A1360704700BF3A
:1032600000E001406C290020002D00207047FFFF86
:1032700010B53F4B4AF20352A3F8FE23A3F50053C7
:103280000122A3F804211A46B2F804319BB2002BA4
:10329000FAD1384B0122A3F80021374B374A1A6084
:1032A000374A5A604FF400429A603649D9601A6131
:1032B000354A5A61FFF7C6FF2D4B202283F81324AD
:1032C000092283F8A22093F880342BB9284B93F875
:1032D000813413F0030F46D0254B93F88034A3B309
:1032E000234B002283F8812483F88024204B002282
:1032F00083F832201A4692F83C3013F0080FFAD0C7
:103300001B4B43F202121A85002283F82A201A4628
:1033100092F83C3013F0200FFAD0164B012283F8BC
:103320001C21134C194B2362052384F82630FFF728
:1033300089FF174BF1221A7300221A72F0221A73B6
:103340004FF42543A4F8FE3310BD0121084B83F848
:103350008014C82000F05AF8054A92F88034DBB295
:10336000012BFAD1BCE74FF47A70FFF77FFFBDE77E
:1033700000E0014000C001406C2900200024F4005E
:1033800000127A00001BB70000E1F50510010110E2
:103390000020004038B5174C002584F82850012142
:1033A000C82000F033F884F82450224692F82430E4
:1033B000002BFBD10F4A92F8243043F0020382F82D
:1033C000243092F8243013F0020FFAD1094B002276
:1033D00083F822201A4692F82230002BFBD10120DC
:1033E00000F008F9044B002283F8BB24012000F010
:1033F000CFF838BD0030084000E00140704700BE03
:10340000FEE7A0F101000028FBD1704708B500FBE2
:1034100001F1204B1B682048B0FBF3F0CA0E4B01B2
:103420005B1A62F10002920042EA93729B005B1801
:1034300042F10002D20042EA5372DB004FF0FF3C3F
:103440009C454FF0000C7CEB020C06D3B3FBF0F371
:10345000980808B1FFF7D5FF08BD8000B1FBF0F177
:10346000CA0E4B015B1A62F10002920042EA9372AB
:103470009B005B1842F10002D20042EA5372D8006E
:103480004FF0FF3383424FF000039341E1D24FF0FE
:10349000FF30DFE7002D002000CA9A3B70B50E4BCD
:1034A000B3F82021B3F84051ADB2154000240B4EC3
:1034B00002E001340E2C0BD025FA04F313F0010FB7
:1034C000F7D056F82430002BF3D0E0B29847F0E75D
:1034D000014BA3F8305170BD00600040382B002034
:1034E00030B585B0032000F085F8254B6FF0FF0262
:1034F0009A644FF0FF33019302930393214C04F13C
:10350000C005234600224FF0010E02E00132AB421B
:1035100012D033F8021F0029F8D0510904A800EB9B
:10352000810102F01F0C0EFA0CFC51F80C0C20EA81
:103530000C0041F80C0CE9E7019A114B1A6712498B
:10354000C1F88022029959674FF0E022C2F8841333
:1035500003999967C2F88813032000F019F8002333
:103560000A4802E00133AC4208D034F8022F002AA6
:10357000F8D003F1C00140F82120F3E705B030BDD9
:10358000008000409EDB020000E100E0006000409F
:10359000EFF31082012383F31088134B33F81030BC
:1035A0009BB233B1104931F81030013B9BB221F886
:1035B00010300D4B33F810309BB293B910B40B4957
:1035C000B1F8FE339BB20A4C34F8100043F42543A3
:1035D00023EA0003A1F8FE3382F310885DF8044B60
:1035E000704782F310887047F42C002000E00140FF
:1035F000D8DD020010B4EFF31081012383F31088AB
:103600000F4B33F810309BB26BB90E4AB2F8FE3351
:103610009BB20D4C34F810C043EA0C0343F425432D
:103620009BB2A2F8FE33064A32F8103001339BB247
:1036300022F8103081F310885DF8044B704700BF0A
:10364000F42C002000E00140D8DD020008B503465C
:103650000C4A12685AB10B4A1068033323F0030373
:103660000344094A934206D8064A136008BD054A36
:1036700006491160EFE712F0D3FE0C2303604FF010
:10368000FF30F3E7FC2C0020E0850020E05500200F
:1036900000BE704708B500F005F8FCF741FEFEE7F4
:1036A0007047FFFF70B52C4B4FF47002C3F88820B1
:1036B0002A4C9C600020FFF7F3FFFFF7D9FD0120A3
:1036C000FFF7EEFF2368A3F5005383F30A8824482D
:1036D000244A121A002112F0A5FF2348234A121A85
:1036E000234911F03DFA234B234A9B1A002B08DD96
:1036F0009E101546002455F8043B98470134A64215
:10370000F9DCFFF79FFDFFF745FE0320FFF772FF8F
:103710001A4B4FF6FF721A825A829A82DA821A8301
:103720005A839A83DA830320FFF732FF0320FFF7DF
:1037300061FF134B00245C609C60DC601C61032013
:10374000FFF726FF0220FFF7ABFFFFF7C9FE204679
:10375000FFF754FE70BD00BF00ED00E00000010067
:1037600088290020DC550020000000206C29002062
:103770007CE402006829002064290020000D084034
:1037800000000E4070B50D461646044668B1681C30
:103790006060A66000256561E5602561314611F035
:1037A00045FC2060257660B170BD1C2011F0E6F963
:1037B00004460028EBD1054B054A2F210548FFF7A9
:1037C0001EFE054810F0A4FFEEE700BFA49D020016
:1037D000E0DD0200B49D0200DC9D020038B5044625
:1037E00001230376C36801334568B3FBF5F005FB9D
:1037F00010352369AB4202D10020207638BDE06845
:10380000A268236802FB003011F0AAF9E560636941
:1038100001336361002323760120EFE710B50446EE
:1038200001230376C26803699A4202D10020207600
:1038300010BD08462169A268236802FB013111F01E
:103840008FF9236901336268B3FBF2F102FB113394
:1038500023616369013B6361002323760120E7E76D
:1038600070B505460E46102011F088F9044650B197
:103870008560466006FB05F011F080F90546206082
:1038800018B10023E360204670BD204611F07EF998
:103890002C46F8E780B110B50446C36882689342AD
:1038A0000DD24268006802FB030011F059F9E36889
:1038B0000133E360002010BD4FF0FF3070474FF040
:1038C000FF30F8E708B1C06870474FF0FF3070472D
:1038D000034630B1C0689B68984234BF0020012085
:1038E00070470120704738B1C2688A4205D94268E2
:1038F000006802FB01007047704700207047D8B194
:1039000038B50B460446D1B105684168C068013836
:1039100000FB0152AB4215D3934216D809D0D21AFC
:103920001944184612F064FEE368013BE36000208E
:1039300038BDE0600020FBE74FF0FF3070474FF0EC
:10394000FF30F5E74FF0FF30F2E74FF0FF30EFE7E1
:10395000B0B1B9B110B40D4A1468421E0139014426
:103960004FF6FF7012F8013F83EA102334F813304A
:1039700083EA002080B28A42F4D15DF8044B70479C
:10398000002070474FF6FF70704700BFD80000203E
:103990009AB110B41346094A14680139CA1811F8CB
:1039A000013F83EA102334F81330000280B25840FC
:1039B0009142F4D15DF8044B70477047D800002065
:1039C00030B5144A02F1160C1346FF211FFA82FE8D
:1039D000A0F15704A0F1300502E0E9B2634515D02B
:1039E00013F8012F8242F9D199B2A1EB0E02013AEC
:1039F00092B2092AF1D90B39A1EB0E0189B205293E
:103A00009ABFA0F13701C9B2E1B2E7E7FF2918BFB9
:103A1000084630BDDB02002001F1FF3C02290BD932
:103A200001230022C15C0A44D2B201339BB2634538
:103A3000F8DB5042C0B270470022FAE710B50378B5
:103A40003A2B2BD1184B3A221A7042785A7084784C
:103A50009C70C478DC7004791C71144C9C6072B149
:103A60000023114C5A1D92B210F802C0A26802F84D
:103A700003C0627801331FFA83FC6245F2D8024426
:103A80005479094B1C73FFF7C7FF844201D10648E4
:103A900010BD074810F03CFE0020F9E7054810F083
:103AA00037FE0020F4E700BF242D0020042D002065
:103AB000F09D0200009E02002DE9F84F8B4621B3D5
:103AC00081469246012700240AE00AF80650013C8C
:103AD000A4B20234A4B27B1C9BB2A34516D91F46E4
:103AE0007E1EB6B219F904805FFA88F0FFF768FF0E
:103AF000054609EB04035878FFF762FF4545E4D01B
:103B000040EA05100AF80600E3E70F463846BDE82C
:103B1000F88FFFFF0CB430B5ADF5805D85B004467D
:103B20000D4641F20202002103A812F07BFD1D4B5D
:103B30001B78A34206D20DF5805D05B0BDE830408C
:103B400002B070470DF58153043302930195164B73
:103B500053F824300093154B53F82430144A4FF493
:103B6000805103A811F08EF90446029B0DF5815295
:103B70001268C0F5805103A8204410F0C7FB04442C
:103B800004ABB4F5805FD4BF1B1903F5805300224A
:103B900003F8042C034B5B68002BCCD003A8984798
:103BA000C9E700BFF4020020F0DD020004DE0200DD
:103BB000149E0200844680B191B1A2B1431E013926
:103BC000013A944413F9010F11F9012F90420CDBD3
:103BD0000EDC6345F6D1002070476FF0010070479E
:103BE0006FF001007047002070474FF0FF307047C2
:103BF0000120704748B110B50446406808B110F084
:103C0000C5FF204610F0C2FF10BD70472DE9F047F8
:103C1000044611B92046BDE8F087174689460C20B6
:103C200010F0ACFF0546104B0360D4F808A00AEB77
:103C30000708C0F8088008F1010010F09FFF064651
:103C400068605246616810F08BFF3A46494606EBC1
:103C50000A0010F085FF002306F808302046FFF721
:103C6000C9FF2C46D6E700BF18DE020038B504466F
:103C700009B9204638BD0D46084611F0FBF802464A
:103C800029462046FFF7C2FF0446F2E740B110B5CF
:103C90000446406810F07AFF00236360A36010BD03
:103CA0007047884210D088B191B108B582688B689E
:103CB0009A4201D0002008BD4968406812F088FC93
:103CC000B0FA80F04009F6E7012070470020704705
:103CD0000020704708B58268406812F079FCB0FA9D
:103CE00080F0400908BDFFFFF8B50746A0B10C46BB
:103CF0000C2010F043FF0546084B0360601C10F0D9
:103D00003DFF06466860AC602246394610F028FF49
:103D1000002333552846F8BD0546FBE718DE0200B0
:103D200010B5044611F0A6F801462046FFF7DCFF67
:103D300010BDF8B515461E4611F0E0FFB0B10746BC
:103D4000294611F0DBFF044698B1284611F092F89D
:103D50000444E41B069B9C420EDC22463946304656
:103D600010F0D0FF002333552046F8BD4FF0FF344C
:103D7000FAE76FF00104F7E76FF06204F4E7FFFF82
:103D800070B50D46044668B194F90010002041B1A9
:103D9000284610F0C9FA90B114F9011F0029F7D193
:103DA000002070BD0F4B1C68002CEDD12046F8E7B9
:103DB000002306F8013B0B4B1E602046F1E794F907
:103DC0000010264641B1284610F0AEFA0028EFD187
:103DD00016F9011F0029F6D1024B00221A60204675
:103DE000DFE700BF342D00202DE9F84F824690F91F
:103DF00000302D2B4FD02B2B52D04FF0010B9AF9C6
:103E00000040A4F13003DBB2092B4ED84FF000087C
:103E10004FF000090026334F32463B4640464946A4
:103E20000FF086FA80468946A4F1300040B20FF0C8
:103E300015FA42464B460FF0C5F8804689461AF9F6
:103E4000014FA4F13003DBB2092BE5D92E2C31D17F
:103E50000024244D002600271AF9010FA0F1300399
:103E6000DBB2092B28D830380FF0F8F922462B4660
:103E70000FF088FB02460B46304639460FF0A2F899
:103E800006460F460022174B204629460FF050FAEF
:103E900004460D46E0E700F1010A4FF0FF3BAEE7B4
:103EA00000F1010A4FF0010BA9E74FF000084FF0B5
:103EB0000009CBE70026002758460FF0CFF904464B
:103EC0000D4632463B46404649460FF07BF80246D7
:103ED0000B46204629460FF02BFA41EC100BBDE8AB
:103EE000F88F00BF00002440014690F90030A3F194
:103EF0003002D2B2092A0ED8002000EB8000303BFD
:103F00005BB203EB400011F9013FA3F13002D2B2E2
:103F1000092AF2D9704700207047F8B504460D46CB
:103F20000171FCF79FF9C4E90401ADB904F117056B
:103F300004F11A076FF01606361B04E0012305F89A
:103F4000013FBD4208D07119206805F0D3FF002859
:103F5000F4D090F82830F2E7F8BDFFFF70B582B0DA
:103F600006460C46069D1E4B53F821303ABB1D4AAF
:103F7000019200901C4A1D490220FFF7CBFD631EF1
:103F8000DBB2032B29D82B79013B042B23D8DFE8A4
:103F900003F0030E120E0900022C1CD12E44102334
:103FA000337618E000212846FFF7B7FF13E02E44D0
:103FB000032333760FE02E440E2333760BE00C4AB6
:103FC00001920090084A09490220FFF7A3FD013C35
:103FD000E4B2032C01D800236B7702B070BD00BFA0
:103FE0003003002010AB0200709E0200889E020089
:103FF0009C9E020040B310B50446022927D802F067
:10400000FD02012A07D0134A13490020FFF782FD61
:104010004FF0FF3008E0006806F02EF828B1237F4B
:104020000D2B88BF002007D910BD0C4A0A49FFF7A5
:1040300071FD4FF0FF30F7E7094A07490020FFF70D
:1040400069FD6FF00100EFE74FF0FF3070474FF070
:10405000FF30E9E7A49E0200889E0200C09E020095
:10406000E89E020070B582B004460D4616460190E7
:104070000A4B009300230A463146006806F00AF80E
:10408000012363770096064B53F82530054A06490D
:104090000220FFF73FFD002002B070BD5D3F010030
:1040A00030030020009F0200889E020098B110B5E6
:1040B000094C206000232371012323766376A376C5
:1040C00041F288320023C4E90223FCF7CBF8C4E9AB
:1040D0000401204610BD7047000300202DE9F04187
:1040E00005460E4617469846FFF784FF002811DB69
:1040F0003146286805F0FEFE836A032B15D0042B99
:1041000024D02F7700246C776E62C5F82880069B38
:10411000EB6223E0B8F1000F38D0069A31464FF039
:10412000FF30C0474FF0FF302EE0032FE9D1334678
:10413000194A1A490220FFF7EDFCB8F1000F28D008
:10414000069A31460020C04700201DE0012FD8D13B
:10415000EDE7032F11D00134032C10D0E3B29E42BF
:10416000F9D0A0462146286805F0C4FE836A032BD7
:10417000EFD0042BEFD1012FEDD1C5F82080012124
:104180002846FFF7CAFE0020BDE8F0814FF0FF305F
:10419000FAE70020F8E700BF1C9F0200889E02009B
:1041A0002DE9F04105460E4617469846FFF722FFD7
:1041B000002811DB3146286805F09CFE836A032B3A
:1041C00015D0042B24D02F7700246C776E62C5F8AD
:1041D0002880069BEB6223E0B8F1000F38D0069AE6
:1041E00031464FF0FF30C0474FF0FF302EE0032F35
:1041F000E9D13346194A1A490220FFF78BFCB8F17E
:10420000000F28D0069A31460020C04700201DE04C
:10421000012FD8D1EDE7032F11D00134032C10D09A
:10422000E3B29E42F9D0A0462146286805F062FE1E
:10423000836A032BEFD0042BEFD1012FEDD1C5F80A
:10424000208004212846FFF768FE0020BDE8F081A9
:104250004FF0FF30FAE70020F8E700BF1C9F020094
:10426000889E020068B102290ED800B583B0019380
:10427000009200230422006805F00CFF03B05DF8F3
:1042800004FB4FF0FF3070474FF0FF307047FFFFE7
:10429000002800F03781F0B583B004460379013B74
:1042A000052B00F23281DFE813F026006E00C70014
:1042B0006E0006001401FBF7D5FF23696269C01A7E
:1042C00061EB0201A268E3689042994180F24A8161
:1042D000637F002B40F01B81226AB2F1FF3F00F0A8
:1042E0001881022A01DD00200AE1217F2046FFF724
:1042F000B9FE002004E1FBF7B5FF23696269C01A2B
:1043000061EB0201A268E3689042994180F2098161
:10431000637F002B40F0FF80002504F1180706E0C2
:10432000836A033B012B1CD90135032D20D0636A1E
:104330009D42F9D07B5D102BF6D02946206805F010
:10434000D9FD237F032BEBD0012BEDD1836A033BF7
:10435000012BE9D82A4604212046FFF783FE0020DE
:10436000CEE02A4602212046FFF77CFE0020C7E06F
:10437000824A83490220FFF7CDFB02212046FFF746
:10438000CCFD0020BCE0FBF76DFF23696269C01A19
:1043900061EB0201A268E3689042994180F2CC800F
:1043A000637F0BB10020ABE0616A206805F0A2FDDD
:1043B000616A63181B7E032B02D0836A0E2B05D023
:1043C000836A033B012B14D9002099E020790091E6
:1043D0006C4B6D4A022808BF13466C4A684903209B
:1043E000FFF798FB626A217F2046FFF73BFE002023
:1043F00086E02379042B03D0022B17D000207FE026
:10440000A36A1BB1E26AC9B2002098470E23237742
:104410004FF0FF33636223620025A562E562657792
:1044200029462046FFF779FD284669E0032120460A
:10443000FFF773FD002063E0FBF714FF2369626957
:10444000C01A61EB0201A268E368904299417EDAEA
:10445000667F002E61D1002504F118070BE02A4683
:1044600004212046FFF7FEFD002049E00136F6B2A8
:104470000135032D0FD02946636A9D42F8D07B5D3C
:10448000102BECD0206805F035FD836A012BEDDDA3
:104490000E2BEDD1EAE7012E41D9A36A23B1E26ADE
:1044A00094F8241000209847394A35490320FFF733
:1044B00031FB0E2323774FF0FF3363622362002525
:1044C000A562E562657729462046FFF726FD284666
:1044D00016E0836A2BB1C26A90F824104FF0FF30C7
:1044E00098470E2323774FF0FF3363622362002542
:1044F000A562E562657729462046FFF70EFD28464E
:1045000003B0F0BD4FF0FF3070470020F8E7002007
:10451000F6E70020F4E70020F2E70020F0E70020B3
:10452000EEE71C4A16490020FFF7F4FA0621204660
:10453000FFF7F3FC0020E3E7174A11490020FFF7DB
:10454000E9FA06212046FFF7E8FC0020D8E7134AE5
:104550000B490020FFF7DEFA05212046FFF7DDFCBE
:104560000020CDE70E4A06490020FFF7D3FA0621C6
:104570002046FFF7D2FC0020C2E700BF509F020098
:10458000889E0200489F02003C9F0200709F02002C
:10459000949F0200C49F0200DC9F0200F49F02006F
:1045A00028A00200AAB110B514460023137678B9EA
:1045B000516999420CDBD36923B19B6813B1926AAC
:1045C000C9B29847636A1BB1A26A217D002098474F
:1045D00010BD7047009B0BB100221A767047FFFF99
:1045E0000B4671B170B108490B608860074B002A17
:1045F00008BF1A4608464A6001230B744B748B743B
:1046000070470846704700BF680300205C03002025
:1046100080B370B50C461646054602292DD81AB14E
:1046200025442E74002070BD006805F063FC836A89
:10463000032B18D0102B16D06B699C42F0D1104A76
:1046400010490120FFF766FAEB692BB1DB681BB15B
:104650002A6A297D002098474FF0FF336B610023C1
:10466000AB626B62DCE700231A462146A868FFF7BD
:10467000F9FDE1E74FF0FF3070474FF0FF30D2E730
:104680001CA1020048A10200002841D0F8B50C4648
:1046900017461E46054602293DD8038BDBB9431851
:1046A0001B7CC3B1006805F0E7FCA0B12146286877
:1046B00005F020FC6B699C4202D1836A032B12D067
:1046C0002346184A18490320FFF724FA6C616F62E9
:1046D000AE620020F8BD154A13490020FFF71AFA10
:1046E0006FF00100F6E72346114A0F490320FFF758
:1046F00011FA1FB1324621460020B847EB696BB171
:104700009B686BB12A6A2146002098470020E1E7A8
:104710004FF0FF3070474FF0FF30DBE70020D9E764
:104720000020D7E7B8A1020048A1020054A102006E
:1047300078A10200A0B110B504464069B0F1FF3F76
:104740000DD0E3692BB1DB681BB1226AC1B2002036
:1047500098474FF0FF3363610020A062606210BD94
:104760004FF0FF307047FFFF2DE9F04F2DED028B2A
:1047700085B0002800F01D81044600F10F0600F10D
:104780001205B0464FF000096FF00E073F1A01E026
:10479000A84513D0414618F8013F002BF8D007EB8D
:1047A000010A5146206805F067FC0028F0D0514608
:1047B000206805F09FFB036B9944E9E7E368A9F1E2
:1047C000050207EE902AF8EE677A9FED847A67EE8D
:1047D000877ADFED836A87EEA67A83ED007AB046AA
:1047E0009FED808A01E0A84521D0414618F8013F9D
:1047F000002BF8D007EB01094946206805F03CFC86
:104800000028F0D04946206805F074FBD0ED087A06
:10481000F8EEE77A90ED097AB8EEC77A67EE877A14
:10482000DFED716A87EEA67A38EE078ADBE7E36888
:1048300083ED018A637E002B40F0BE806169002910
:1048400049DB237E002B40F0BE80206805F014FC7D
:10485000054640B16169206805F04CFB836A032B73
:1048600015D1002521E0614A6149FFF753F9E36959
:1048700033B1DB6823B1A26A217D4FF0FF30984746
:104880004FF0FF3363610023A362636295E001236D
:1048900023760094574B0322217DA068FFF71EFC6E
:1048A00000258AE00135032D13D063699D42F9D0BC
:1048B0002946206805F01EFB836A032BF2D10123F1
:1048C000237623464C4AE9B2A068FFF7CBFC0025CB
:1048D00073E0002571E0237E002B76D14FF0000BB2
:1048E0004FF0FF3AD946CDF80CB00CE0036A039ABA
:1048F0009342C8BFC2469A42B8BF1A460392436A5F
:104900009944AE4218D0B04616F8013F002BF8D0BB
:10491000B8444146206805F0AFFB0028F1D041467D
:10492000206805F0E7FA836A0E2BDFD0033B012BEA
:1049300098BFD0F820B0E2E7BAF1FF3F47D0039B21
:10494000A3EB0B03626883EAE370A0EBE3705168AA
:1049500088421CDB11688B423BDDB9F1000FB8BF08
:10496000C9F100099368994535DA5346234A20492D
:104970000220FFF7CFF80123237600941D4B03227A
:104980005FFA8AF1A068FFF7A9FB002515E05346FE
:104990001B4A17490220FFF7BDF801232376009434
:1049A000144B03225FFA8AF1A068FFF7F9FB002598
:1049B00003E04FF0FF3500E00025284605B0BDECD0
:1049C000028BBDE8F08F0025F7E70025F5E700250D
:1049D000F3E70025F1E70025EFE700BF0000914471
:1049E0000000C8420000000000247449D8A1020061
:1049F00048A10200A5450100D54501003CA20200E6
:104A000008A20200034678B100205860986083F83D
:104A10001E044FF6FF72A3F81C24C3F81404C3F855
:104A20001804D860186170474FF0FF30704730B1FC
:104A300041B1C0F83814C0F83C24002070474FF052
:104A4000FF3070474FF0FF30704730B1B0F81C04B2
:104A5000884214BF0020012070474FF0FF3070479C
:104A600060B370B50E46034659B31146002AB8BF6D
:104A700002F2FF318912C2F3090000B10131DE6098
:104A80001A61C3F81814002583F81E544FF6FF72FC
:104A9000A3F81C24C3F8145483F8205403F5866447
:104AA00044F62062002344E90223FBF7DBFBC4E960
:104AB000000130460BF02CFD284670BD4FF0FF3052
:104AC00070474FF0FF30F8E730B108B539B14160B9
:104AD00080680BF0DCFB08BD4FF0FF3070474FF0F3
:104AE000FF30F8E7002869D030B583B0044619B12B
:104AF000416080680BF0CBFBD4F81834013BD4F84C
:104B000014249A4223DB012384F81E34A0680BF09E
:104B1000B1FBD4F814142269A2EB81228902A068A7
:104B20000BF0ADFB2346274A6168A0680BF0B2FB8F
:104B3000002822DBD4F814040130C4F81404D4F89B
:104B400018349842ACBF0220012003B030BD94F865
:104B50001E34002BDAD1A0680BF08CFBD4F81414AF
:104B60004FF480628902A0680BF089FB2346154A46
:104B70006168A0680BF08EFBDAE7D4F81434124AAF
:104B800012490020FEF7C6FFD4F8385455B1D4F8C6
:104B90003C3400930E4B6FF0020294F81E14D4F8CC
:104BA0001404A84794F820040130C0B284F820040B
:104BB00013284FF0FF3098BF0020C6E74FF0FF30BA
:104BC000704700BFD54B010074A2020090A2020002
:104BD000A0A2020070B582B01C4613B10E46154665
:104BE000A2B9264A26490020FEF794FFD4F838548B
:104BF00055B1D4F83C340093224B4FF0FF3294F877
:104C00001E14D4F81404A84702B070BDD3F81414CD
:104C1000134632468902E0680BF085FC002816DB5B
:104C20002A463146B4F81C04FEF7B2FEA4F81C0470
:104C3000D4F83854002DE7D0D4F83C340093124B0C
:104C4000002294F81E14D4F81404A847DCE7D4F822
:104C500014340E4A0A490020FEF75CFFD4F8385499
:104C6000002DD1D0D4F83C340093094B6FF00102F1
:104C700094F81E14D4F81404A847C5E7B0A20200A3
:104C800090A20200E4A2020010AB0200F4A2020013
:104C90001CA3020010B5044630B10648846000230E
:104CA0004360C360036110BD034A0449FEF732FF4D
:104CB0002046F8E79803002034A3020090A20200E7
:104CC00000B5844600F11C0300F16C0E184613B1C8
:104CD0001A788A4205D014337345F7D100205DF865
:104CE00004FBCCF86C30FAE710B540B10446C36E53
:104CF0001B78032B15D8DFE803F0071610120B4AB8
:104D00000B49FEF707FF07E00A4B0B4A0849022050
:104D1000FEF700FF0823237610BD084BF5E7084B8C
:104D2000F3E7084BF1E7084BEFE700BF88A3020069
:104D3000A8A3020068A30200B4A3020070A30200AB
:104D400074A3020078A302006CA302002DE9F041D5
:104D500082B0089E56B3044615461F461F4A204B94
:104D6000002D08BF1A46009203461E4A1E49002025
:104D7000FEF7D0FEB36F33B3D3F80880B8F1000F5D
:104D800021D01A4BDB6E9B681A46002BB8BF03F28A
:104D9000FF329212C3F3090303B10132F36E1B78A1
:104DA000032B17D8DFE803F008181214104A0E4935
:104DB0000020FEF7AFFE06E00E48F36F0193009768
:104DC0002B462146C04702B0BDE8F0810A48F4E70F
:104DD0000A48F2E70A48F0E70A48EEE788A202002C
:104DE00010AB0200D0A30200A8A30200382D0020BF
:104DF00088A3020068A3020070A3020074A302004B
:104E000078A302006CA3020030B583B0DAB1144677
:104E1000936FF3B1DB68E3B111B311F1030F3FD02E
:104E200011F1020F5DD0484A48490220FEF772FE98
:104E3000A36FDD68E36E1A78032A00F28180DFE851
:104E400002F071817B7D424A40490020FEF762FEFC
:104E500004E0404A3D490120FEF75CFE03B030BD4E
:104E60003D4A3A490220FEF755FEA36FDD68E36E26
:104E70001A78032A10D8DFE802F002110B0D374828
:104E80005B685968E36F0093354B0022A847E5E75C
:104E90003448F5E73448F3E73448F1E73448EFE7BE
:104EA000344A2A490220FEF735FEA36FDD68E36E1F
:104EB0001A78032A11D8DFE802F002120C0E2748F4
:104EC0005B685968E36F00932B4B6FF00502A847AE
:104ED000C4E72448F4E72448F2E72448F0E72448EC
:104EE000EEE7264A19490220FEF714FEA36FDD689B
:104EF000E36E1A78032A11D8DFE802F002120C0ED2
:104F000016485B685968E36F00931D4B6FF007020A
:104F1000A847A3E71348F4E71348F2E71348F0E77C
:104F20001348EEE70D485B685968E36F0093154B33
:104F30006FF00802A84791E70A48F4E70A48F2E749
:104F40000A48F0E70A48EEE7D0A40200A8A302004E
:104F500088A30200E8A302000CA4020068A30200D8
:104F600024A4020070A3020074A3020078A302002C
:104F70006CA3020034A4020064A4020084A4020012
:104F8000B0A40200F8A402002DE9F041F8B10C46EB
:104F90001746E1B1DAB1204A10605160FFF77AFE9E
:104FA0000646D8B11C4D03689B682A461B499847A2
:104FB000AE606C601A498D60204603F0CFFB2F6114
:104FC0002C4605F150074FF0040800250FE0154A64
:104FD00015490020FEF79EFD002619E0134A1249EC
:104FE000FEF798FD14E0F5621434BC420FD026465B
:104FF00084F81C80A5626562206A08B1FEF7FAFD9C
:105000003562F06A0028EED0FEF7F4FDEBE7024EC1
:105010003046BDE8F08100BF382D00204D4D010025
:10502000F00700201CA50200A8A3020050A5020062
:1050300020B1416102674367002070474FF0FF30A5
:10504000704720B131B18167C267002070474FF0CF
:10505000FF3070474FF0FF30704720B1007E0038BE
:1050600018BF012070474FF0FF307047002842D032
:105070002DE9F041064601291ED800EB8105A968FB
:10508000D1B1864600F1500184469CF81C40032CA7
:1050900034D00CF1140C8C45F7D100249EF81CC0C0
:1050A000BCF1040F10D001340EF1140E042CF5D114
:1050B0004FF0FF30BDE8F081154A16490020FEF799
:1050C00029FD4FF0FF30F5E704EB840706EB870777
:1050D000032139777A77069A7A62079ABA62184674
:1050E000FEF71EFE38620898FEF71AFEF862AB68FB
:1050F000F3600020DEE74FF0FF3070470323064ADD
:1051000004490120FEF706FD4FF0FF30D2E700BF53
:1051100094A50200A8A30200B0A5020080B32DE967
:10512000F0410546844600F1500E03461C7F032CD7
:1051300029D014337345F9D100249CF81C30042B7A
:1051400008D001340CF1140C042CF6D14FF0FF30D0
:10515000BDE8F08104EB840705EB870703233B7769
:10516000797700267E62BE621046FEF7D9FD38626E
:10517000FE623B461C33EB6606232B763046E7E7A0
:105180004FF0FF3070470323034A04490120FEF724
:10519000C1FC4FF0FF30DBE7B0A50200A8A302007E
:1051A000002840D02DE9F041054601291ED800EB2A
:1051B0008106B168D1B1864600F1500184469CF861
:1051C0001C40944232D00CF1140C8C45F7D10024D1
:1051D0009EF81CC0BCF1040F10D001340EF1140E67
:1051E000042CF5D14FF0FF30BDE8F081144A154989
:1051F0000020FEF78FFC4FF0FF30F5E704EB84074B
:1052000005EB87073A77069A7A62079ABA621846D8
:10521000FEF786FD38620898FEF782FDF862B368F3
:10522000EB600020E0E74FF0FF3070471346064A7E
:1052300004490120FEF76EFC4FF0FF30D4E700BFB9
:1052400094A50200A8A30200B0A5020018B1012293
:105250000276002070474FF0FF30704770B582B083
:10526000002800F03C810446037E013B082B00F23D
:105270003981DFE813F0090014006E0082008B0012
:10528000CF00FC0001011E01836F1B680BB1C06FD2
:105290009847022323760025284602B070BD0021DE
:1052A000FFF70EFD034688B1E36602222276A26F65
:1052B000002A00F01D815568002D00F01981197831
:1052C000032932D8DFE801F025332D2F01212046B4
:1052D000FFF7F6FC03460028E6D102212046FFF73F
:1052E000EFFC03460028DFD103212046FFF7E8FC4E
:1052F00003460028D8D18F4A8F490020FEF70AFCC8
:10530000A36F1BB15B690BB1E06F98470025257651
:10531000C2E78A48E26FA847E36E002B00F0F980ED
:10532000E7E08748F6E78748F4E78748F2E78748E9
:10533000F0E7824B864A80490220FEF7EBFB00250E
:10534000AAE77F4BF6E77F4BF4E77F4BF2E77F4B13
:10535000F0E7C06803681B6900219847022804D061
:10536000B0F1FF3F05D0002596E704232376002502
:1053700092E70823237600258EE7764A6E490220BD
:10538000FEF7C8FB05232376002585E7C068E26E9B
:1053900003685B69918998470546002831D16E4AB8
:1053A0006549FEF7B7FBA36F002B2AD09E6846B372
:1053B0006A4BDB6E9B681946002BB8BF03F2FF31C6
:1053C0008912C3F3090303B10131E36E1B78032B88
:1053D00013D8DFE803F002140E105848E36F01936E
:1053E0005F4B00936FF003030A46B047092323760F
:1053F00052E75348F2E75348F0E75348EEE7534883
:10540000ECE7584A4C490220FEF784FB062323763A
:10541000002541E7C16E0B78032B1FD8DFE803F0AE
:10542000020A0F180169406803F01CFA072323766B
:10543000002531E70169406803F0DAF9F6E7436FC8
:105440000093036F42690169406803F045FAEDE794
:1054500002694978406803F089F9E7E7424A36492A
:105460000220FEF757FB09232376002514E7406846
:1054700003F066F900250FE709230376836F002BFD
:1054800032D01B69002B31D0C26E1278032A0CD89F
:10549000DFE802F0020D07092848E16F9847002570
:1054A000FAE62748F9E72748F7E72748F5E72748C6
:1054B000F3E7C66E042333700023F360B3607068B3
:1054C00008B1FEF797FB00237360306908B1FEF75F
:1054D00091FB00253561E56602232376DCE64FF07B
:1054E000FF35D9E60025D7E60025D5E60025D3E629
:1054F000E36EE06858B1026815689A682169A847A8
:10550000E068E36E1A690368DB6851689847032313
:105510002376E36E1B78032B3FF617AF01A252F8F8
:1055200023F000BF335301004F53010043530100E8
:1055300047530100DCA60200A8A3020068A30200F2
:1055400070A3020074A3020078A302006CA30200FF
:10555000F8A5020020A6020060A60200382D002057
:105560008CA60200A8A60200C8A6020020B131B194
:105570008160C260002070474FF0FF3070474FF0ED
:10558000FF307047034628B1826832B1002098602E
:10559000D86070474FF0FF3070474FF0FF307047D2
:1055A000034610B10020187570474FF0FF30704768
:1055B00018B101220275002070474FF0FF3070478C
:1055C000B0FA80F040094042704730B190F8A2082C
:1055D000012894BF0020012070474FF0FF30704732
:1055E000A9B100B583B091F87C3001EBC302D26A57
:1055F00001920093064A074B002818BF1346064A3B
:1056000006490220FEF786FA03B05DF804FB7047F6
:1056100088A2020010AB0200F8A6020030A7020028
:10562000B1B138B504460D4660B90A4A0A490220AC
:10563000FEF770FAAB6823B11B6813B1E968204626
:10564000984738BD054A04490020FEF763FAF1E7A0
:10565000704700BF3CA7020030A7020058A7020015
:1056600039B108B50346034A03490320FEF752FA4D
:1056700008BD704784A7020030A7020039B108B501
:105680000346034A03490320FEF744FA08BD704766
:10569000A4A7020030A70200F1B138B50C468B6810
:1056A0001BB15B680BB1C9689847012584F8A25803
:1056B000002384F87C3004F50B6440F6B8320023F4
:1056C00044E90223FAF7CEFDC4E90001034A044984
:1056D0002846FEF71FFA38BD704700BFC4A7020076
:1056E00030A7020010B584B00C46114602900A4B58
:1056F00001930023009301232246806A0AF0EAFC0A
:10570000041E02DB204604B010BD044A04490020F8
:10571000FEF700FAF6E700BF61560100F8A70200A5
:1057200030A70200F0B5C5B004464FF480720021E6
:1057300004A810F077FF62685368002B60D0116AEC
:1057400002209847074663685A68196A0020904704
:10575000064663685A68196A012090470546002189
:1057600004A807F06DF92D4907F06AF92C4907F0F4
:1057700067F9A2692B4907F0AFF947B12A4907F049
:105780005FF93A46294907F0A7F907F071F946B1E0
:10579000274907F055F93246244907F09DF907F0EB
:1057A00067F945B1234907F04BF92A461F4907F02D
:1057B00093F907F05DF907F05BF907F059F907F085
:1057C00057F907F0FBF904ABC01A002818DDA56AE9
:1057D00002F0B2F901460294174B019300230093A3
:1057E000012304AA28460AF075FC041E10DB134AA4
:1057F00013490220FEF78EF90024204645B0F0BD83
:10580000104A0F490020FEF785F94FF0FF34F4E706
:105810000D4A0B490020FEF77DF9EEE7BC9F020020
:1058200034A8020038B0020070A3020040A80200B1
:1058300068A302006CA3020061560100A4A8020044
:1058400030A7020048A802006CA802002DE9F0472A
:10585000ADF5CC6D05464FF4C062002118A810F0DC
:10586000E1FE6B68002B00F0C580002118A807F04E
:10587000E7F8A04907F0E4F89F4907F0E1F8AA69C2
:105880009E4907F029F904466A689368002B00F0E6
:10589000C780106A98470646D0F8048007680269F6
:1058A0009749204607F092F9F268964907F08EF979
:1058B000727A954907F08AF93A8A944907F086F98D
:1058C0003A7B934907F082F93A78924907F07EF9DA
:1058D000BA79112A14BF002201228F4907F076F904
:1058E000BA79122A14BF002201228C4907F06EF9FE
:1058F000FA79112A14BF00220122894907F066F9BA
:10590000FA79122A14BF00220122864907F05EF9B3
:10591000327F854907F05AF9727F844907F056F9BA
:1059200004466A68536923B1116A06A8984700289B
:105930007AD06A68936933B1126A08A905A89847B2
:10594000002800F08D80002E2ED06B685A6932B38B
:105950009B6923B37649204607F072F804466B68CA
:105960005A69196A06A89047002800F08C806B6875
:10597000D3F818901A6A08A905A8C847002800F0AB
:105980009E806A68D36933B1116A08A89847B0F15C
:10599000000900F3A780204607F06AF80446336840
:1059A0001B7B002B00F0DE80B7B16249204607F078
:1059B00047F8FA8B604907F009F9BA695F4907F0BF
:1059C00005F97A695E4907F001F93A7F5D4907F008
:1059D000FDF807F04DF80446204607F049F807F0B7
:1059E00047F807F045F807F0E9F818ABC01A0028A7
:1059F00000F306814FF4C062002118A810F012FED7
:105A0000002118A807F01CF83A4907F019F83A499C
:105A100007F016F84C4907F039F8044600261AE159
:105A20000027B8463E467CE74849204607F008F87C
:105A3000044606980DF024FC41EC100B4449204626
:105A400007F0D6F8044607980DF01AFC41EC100B4D
:105A50004049204607F0CCF807F00AF8044668E70A
:105A60003D49204606F0ECFF059A3C4907F0AEF8A8
:105A700000238DF8343008AA394907F02DF806F0D4
:105A8000F7FF04465FE73149204606F0D9FF044698
:105A900006980DF0F5FB41EC100B2D49204607F060
:105AA000A7F8044607980DF0EBFB41EC100B2949D1
:105AB000204607F09DF806F0DBFF044657E726492D
:105AC000204606F0BDFF059A244907F07FF8002321
:105AD0008DF8343008AA224906F0FEFF06F0C8FF10
